:020000040800F2
:100000009806002045010008951400089714000880
:100010009B1400089F140008A314000800000000AF
:10002000000000000000000000000000A71400080D
:10003000A914000800000000AB140008AD1400086B
:100040005F0100085F0100085F0100085F01000810
:100050005F0100085F0100085F0100085F01000800
:100060005F0100085F0100085F0100085F010008F0
:100070005F0100085F0100085F0100085F010008E0
:100080005F0100085F0100085F0100085F010008D0
:100090005F0100085F0100085F0100085F010008C0
:1000A0005F0100085F0100085F0100085F010008B0
:1000B0005F0100085F0100085F0100085F010008A0
:1000C0005F0100085F0100085F0100085F01000890
:1000D0005F0100085F0100085F0100085F01000880
:1000E0005F0100085F0100085F0100085F01000870
:1000F0005F0100085F0100085F0100085F01000860
:100100005F0100085F0100085F0100085F0100084F
:100110005F0100085F0100085F0100085F0100083F
:100120005F0100085F0100085F0100085F0100082F
:10013000DFF80CD001F01AFE00480047290F000834
:10014000980600200648804706480047FEE7FEE77D
:10015000FEE7FEE7FEE7FEE7FEE7FEE7FEE7FEE777
:1001600047020008310100080CB500200190009002
:100170006C48006840F480306A49086000BF6948F4
:10018000006800F4003000900198401C0190009835
:1001900018B90198B0F5A06FF1D16248006800F479
:1001A000003010B10120009001E000200090009884
:1001B000012843D15C48006840F010005A490860AB
:1001C0000846006820F0030008600846006840F018
:1001D0000200086053484068524948600846406839
:1001E00048600846406840F48060486008464068BF
:1001F00020F47C1048600846406840F4E8104860ED
:100200000846006840F08070086000BF45480068FC
:1002100000F000700028F9D04248406820F0030048
:10022000404948600846406840F00200486000BF0E
:100230003C48406800F00C000828F9D10CBD10B50E
:10024000FFF792FF10BD10B53648006840F001007E
:1002500034490860084640683449084031494860DC
:1002600008460068324908402E4908600846006880
:1002700020F4802008600846406820F4FE004860B2
:100280004FF41F008860FFF7DAFF4FF00060294944
:10029000086010BD10B5002100200022214B5B68D2
:1002A00003F00C0121B1042906D0082928D107E068
:1002B000214B224C236027E01F4B204C236023E07E
:1002C000184B5B6803F47010164B5B6803F48032C4
:1002D000022303EB904022B9194B4343174C236090
:1002E0000DE0104B5B6803F4003323B1144B434320
:1002F000124C236003E0104B4343104C236003E097
:100300000D4B0E4C236000BF00BF064B5B68C3F370
:1003100003130C4CE15C094B1B68CB40074C23607A
:1003200010BD000000100240002002400000FFF855
:10033000FFFFF6FE08ED00E000127A00000000204A
:1003400000093D000400002031490143314A116099
:10035000704770B5002100230F22C47804B32D4CE0
:10036000246804F4E064C4F5E064210AC1F10403E4
:10037000CA40447804FA03F1847814402143090107
:10038000254C0678A155047804F01F050124AC40E3
:1003900005786D11AD0005F1E025C5F8004109E0D3
:1003A000047804F01F050124AC401C4D067876113A
:1003B00045F8264070BD1A4A0A400243154B1B1FE0
:1003C0001A60704739B1134A121D12680243114B6B
:1003D0001B1D1A6006E00F4A121D126882430D4B66
:1003E0001B1D1A607047042808D14FF0E0210969ED
:1003F00041F004014FF0E022116107E04FF0E021ED
:10040000096921F004014FF0E022116170470000FA
:100410000000FA050CED00E000E400E080E100E0FF
:1004200080FFFF1F10B50446CC48844208D101214B
:10043000042000F02FFD0021042000F02BFD46E0F9
:10044000C748844208D10121082000F023FD002183
:10045000082000F01FFD3AE0C248844208D1012183
:10046000102000F017FD0021102000F013FD2EE0F9
:10047000BD48844208D10121202000F00BFD00215D
:10048000202000F007FD22E0B848844208D1012175
:10049000402000F0FFFC0021402000F0FBFC16E0B3
:1004A000B348844208D10121802000F0F3FC0021F0
:1004B000802000F0EFFC0AE0AE48844207D1012121
:1004C000801500F0E7FC0021A01500F0E3FC10BD52
:1004D00010B50121084600F0DDFC0021012000F0EC
:1004E000D9FC10BD2DE9F041024600250026002070
:1004F00000230024002791F803C00CF00F0591F8A9
:1005000003C00CF0100CBCF1000F03D091F802C036
:100510004CEA050591F800C0BCF1000F31D0146819
:1005200000202BE04FF0010C0CFA00F3B1F800C0F2
:100530000CEA03069E4220D183004FF00F0C0CFA08
:1005400003F7BC4305FA03FC4CEA040491F803C02A
:10055000BCF1280F06D14FF0010C0CFA00FCC2F8D8
:1005600014C00AE091F803C0BCF1480F05D14FF068
:10057000010C0CFA00FCC2F810C0401C0828D1D3B2
:100580001460B1F800C0BCF1FF0F34DD54680020E6
:100590002EE000F1080C4FF0010808FA0CF3B1F856
:1005A00000C00CEA03069E4221D183004FF00F0CDD
:1005B0000CFA03F7BC4305FA03FC4CEA040491F877
:1005C00003C0BCF1280F05D100F1080C08FA0CF8A3
:1005D000C2F8148091F803C0BCF1480F07D100F1B4
:1005E000080C4FF0010808FA0CF8C2F81080401C03
:1005F0000828CED35460BDE8F0814FF6FF7101802A
:10060000022181700421C170704702460020936866
:100610000B400BB1012000E00020704701468868C4
:1006200080B2704702460020D3680B400BB1012016
:1006300000E0002070470146C86880B27047016141
:100640007047416170470AB1016100E04161704744
:10065000C16070474FF480320A43826181618261D8
:1006600082698269704702460020434B18684FF642
:100670008073184040EA021008433F4B18607047EF
:100680003E49C8617047F0B50A46002300240021A6
:10069000002500F00046B6F1004F02D1364EF16958
:1006A00001E0354E7168C0F3034583B200F4401693
:1006B000B6F5401F08D121F070612F4E766826F004
:1006C00070662D4F7E6012E000F48016B6F5801F34
:1006D00006D1032606FA05F4A14341F0706106E055
:1006E000460D360103FA06F6B14341F0706122B1BE
:1006F000460D360103FA06F6314300F00046B6F126
:10070000004F02D11C4EF16101E01B4E7160F0BD43
:1007100030B500228B071C0F0F2303FA04F2164B8F
:1007200008338C1053F824309343134C08348D1045
:1007300044F8253023468C1053F824308C07240FBE
:1007400000FA04F423430C4C08348D1044F825308F
:1007500030BD0A49DC3108607047000000080140E4
:10076000000C01400010014000140140001801403D
:10077000001C014000200140000001400000204218
:1007800010B50446F748844209D10121480500F01C
:100790008EFB00214FF4001000F089FB08E00121DE
:1007A000880500F084FB00214FF4800000F07FFBFF
:1007B00010BD2DE9F04385B004460D460026B14634
:1007C0000427DFF8A483A6884FF6C0700640684669
:1007D00000F0D9FADDF80880E448B8FBF0F01FFA21
:1007E00080F946EA0906A68020884FF6FE71084087
:1007F00020800026DE49286888420CD828684000FE
:10080000B8FBF0F087B2042F00DA04273E4309F169
:100810000100208427E0E8884BF6FF71884206D16A
:10082000286800EB4000B8FBF0F087B209E02868C8
:1008300000EBC00101EB0010B8FBF0F087B247F409
:100840008047C7F30B0008B947F0010747F40040A1
:1008500006434FF4967009FB00F04FF47A7190FB59
:10086000F1F0401C2084A683208840F00100208005
:1008700026884FF6F5300640A88869890843064364
:100880002680A88929890843208105B0BDE8F08326
:1008900041F288310160002181804BF6FF71C180F7
:1008A0000021018141814FF480418181704721B154
:1008B000028842F00102028004E002884FF6FE73D3
:1008C0001A400280704721B1828842F4006282801F
:1008D00004E082884FF2FF731A408280704721B192
:1008E000828842F48052828004E082884EF6FF7350
:1008F0001A408280704721B1028842F480720280DF
:1009000004E002884FF6FF631A400280704721B16D
:10091000028842F40072028004E002884FF6FF531E
:100920001A400280704721B1028842F4806202803E
:1009300004E002884FF6FF331A40028070470A46EF
:10094000002181894FF60173194002F0FE0319431B
:100950008181704721B1828942F00102828104E0E5
:1009600082894FF6FE731A408281704721B1028856
:1009700042F04002028004E002884FF6BF731A4042
:10098000028070471AB183880B43838002E083881A
:100990008B4383807047018270470146088AC0B24A
:1009A000704712B141F0010102E04FF6FE731940A9
:1009B0000182704708B5024600200090009200981E
:1009C000084400900098008808BD21B1028842F4D4
:1009D0000042028003E00288C2F30E0202807047E8
:1009E000B1F5006F04D1028842F40062028004E095
:1009F00002884FF2FF731A4002807047B1F5005F22
:100A000004D1028842F40052028004E002884DF6CC
:100A1000FF731A400280704721B1028842F480526D
:100A2000028004E002884EF6FF731A40028070478D
:100A3000B1F5006F04D1028842F40062028004E044
:100A400002884FF2FF731A400280704721B102887A
:100A500042F02002028004E002884FF6DF731A4061
:100A6000028070470146088B0012704721B102884E
:100A700042F01002028004E002884FF6EF731A4041
:100A80000280704721B9028842F08002028004E0AF
:100A900002884FF67F731A4002807047B1F5804F8D
:100AA00005D0828B4BF6FF731A40828303E0828B62
:100AB00042F480428283704770B5024600240025CC
:100AC00000230020958A138B1B0445EA030626F0B9
:100AD0007F4404EA01068E4201D1012000E000209B
:100AE00070BD10B501460020002300228B8A0A8BBE
:100AF000120443EA020424F07F4010BD0CB5024604
:100B0000002000230193009300920B0F019321F02A
:100B10007F41019B1BB1009B1433009303E0090C40
:100B2000009B18330093009B1B680B400BB1012006
:100B300000E000200CBD002221F07F42D3438382DD
:100B4000704730B5024600200023948801F0E0652C
:100B500004EA154321F07F41948A0C4054B14BB113
:100B6000012008E00054004000127A0040420F00CB
:100B7000A0860100002030BD002221F07F42D34337
:100B800083827047DF48006840F00100DD4908605B
:100B900008464068DC490840DA4948600846006871
:100BA000DA490840D74908600846006820F48020E8
:100BB00008600846406820F4FE0048604FF41F00BB
:100BC00088607047CF49096821F48031CD4A1160AF
:100BD0001146096821F480211160B0F5803F03D0EF
:100BE000B0F5802F0ED106E0C649096841F4803186
:100BF000C44A116007E0C349096841F4A021C14A11
:100C0000116000E000BF00BF704710B50146002230
:100C1000002300204A11012A02D1BA4C236806E0C1
:100C2000022A02D1B74C236A01E0B64C636A01F094
:100C30001F02012494401C400CB1012000E0002060
:100C400010BD38B5002000900024002500BF3120E1
:100C5000FFF7DBFF05460098401C00900098B0F5B8
:100C6000A06F01D0002DF2D03120FFF7CEFF08B1E8
:100C7000012400E00024204638BD01460020A14A9E
:100C8000106820F0F80040EAC10010607047A049E9
:100C900008607047024600209A4B586820F47C1088
:100CA00042EA01031843974B586070479849086619
:100CB000704701460020934A506820F00300084323
:100CC000506070478F48406800F00C007047014644
:100CD00000208C4A506820F0F000084350607047B4
:100CE00001460020874A506820F4E06008435060C5
:100CF000704701460020834A506820F4605040EA63
:100D0000C1005060704729B17E4A527A02437D4B40
:100D10005A7204E07B4A527A82437A4B5A72704785
:100D20007B49D8310860704701460020754A5068F9
:100D300020F440400843506070470021714A20323F
:100D40001170704A82F82010012802D004280AD1BC
:100D500004E001216B4A2032117005E00521694A47
:100D60002032117000E000BF00BF70476949086081
:100D700070476449096A0143624A116270476549D4
:100D800044390860704730B5002100220024002358
:100D90005C4D6D6805F00C0121B1042905D00829CE
:100DA00023D105E05C4D056022E05B4D05601FE04E
:100DB000544D6D6805F47012524D6D6805F4803421
:100DC000022505EB92421CB9544D554305600BE0DA
:100DD0004C4D6D6805F400351DB1504D554305600F
:100DE00002E04D4D5543056002E04B4D056000BFEC
:100DF00000BF444D6D6805F0F0010909484D6B5C7A
:100E00000568DD4045603F4D6D6805F4E061090A05
:100E1000434D6B5C4568DD4085603A4D6D6805F477
:100E20006051C90A3E4D6B5C4568DD40C560354D7B
:100E30006D6805F44041890B3A4D6B5CC568B5FBA4
:100E4000F3F5056130BD29B12E4A526902432D4B9D
:100E50005A6104E02B4A526982432A4B5A61704717
:100E600029B1284A92690243264B9A6104E0254A37
:100E700092698243234B9A61704729B1214AD26912
:100E80000243204BDA6104E01E4AD26982431D4BC3
:100E9000DA61704729B11B4AD2680243194BDA6004
:100EA00004E0184AD2688243164BDA60704729B1D1
:100EB000144A12690243134B1A6104E0114A126981
:100EC0008243104B1A6170471249403908607047DD
:100ED0000F49C86470470B49C87170470948406A98
:100EE00040F0807007494862704701460020054A7B
:100EF00092680A400AB1012000E0002070470149D1
:100F000088727047001002400000FFF8FFFFF6FEF5
:100F1000000042428004424200127A0000093D0073
:100F200014000020240000201CB500240027002508
:100F3000A2460026A046A14600F052FD00F0B8FAF5
:100F40004FF40061FA48FFF77CFB00F0CDFA00F0A7
:100F50004FFB00F089FE00BF00F063FE0028FBD1CC
:100F6000C82000F07AFD00F0CDFB00240AE0611CEF
:100F7000CAB2082101EB0411C8B2002100F04FFCF5
:100F8000601CC4B2062CF2DB0223EAA21946002040
:100F900000F0D3FB0223EAA20421002000F0CDFBE5
:100FA0004BE2002000F08BFE0746012F71D1C102F9
:100FB000DF48FFF744FB642000F04FFDF902DC48F6
:100FC000FFF73FFB681CC5B2042D00DD0025032D93
:100FD00002D00DB1012D01D100F094FB002D6FD096
:100FE000032D57DA012D04D100220221602000F0E8
:100FF00016FC022D0AD10223D4A21946602000F06B
:101000009CFB00220621602000F009FC00240AE07D
:10101000E11DCAB2262101EB0411C8B2002100F083
:10102000FEFB601CC4B2042CF2DB002409E004F1D6
:101030000F01CAB22107080E022100F0F0FB601C6C
:10104000C4B2022CF3DB0223BBA21946232000F01A
:1010500074FB002409E004F11101CAB22107080E53
:10106000062100F0DCFB601CC4B2022CF3DB02237F
:10107000B1A20621232000F060FBB54802780221CE
:10108000302000F02EFCB34802780621302000F01A
:1010900028FC74E0032D04D100220221602000F01E
:1010A000BEFB042D0AD10223A8A21946602000F03D
:1010B00044FB00220621602000F0B1FB00240CE07C
:1010C00042E004F10B01CAB2262101EB0411C8B2BF
:1010D000002100F0A4FB601CC4B2042CF1DB00244E
:1010E00009E004F10F01CAB22107080E022100F045
:1010F00096FB601CC4B2022CF3DB022391A21946BA
:10110000232000F01AFB002409E004F11101CAB207
:101110002107080E062100F082FB601CC4B2022CDD
:10112000F3DB022387A20621232000F006FB8A4876
:1011300002780221302000F0D4FB88480278062192
:10114000302000F0CEFB1AE000240AE0611CCAB295
:10115000082101EB0411C8B2002100F060FB601C03
:10116000C4B2062CF2DB022372A21946002000F062
:10117000E4FA022372A20421002000F0DEFA002D1E
:101180007ED0022F52D1B9026948FFF758FA642085
:1011900000F063FCB9026648FFF753FA012D0ED147
:1011A0006B480078632804DA69480078401C684975
:1011B0000870674802780221302000F092FB022D6F
:1011C00010D16448007862490978884204DA61489D
:1011D0000078401C5F4908705E4802780621302084
:1011E00000F07FFB032D0ED15B480078632804DA02
:1011F00059480078401C5849087057480278022125
:10120000302000F06EFB042D10D154480078524974
:101210000978884204DA51480078401C4F49087028
:101220004E4802780621302000F05BFB032F56D198
:101230004FF400613E48FFF702FA642000F00DFC15
:101240004FF400613A48FFF7FCF9012D10D14048F6
:10125000007840490978884204DD3D480078401E06
:101260003B4908703A4802780221302000F039FBEF
:10127000022D10D137480078002806DD354800E0FF
:101280002DE00078401E334908703248027806216C
:10129000302000F026FB032D10D12F4800782F4975
:1012A0000978884204DD2C480078401E2A490870DD
:1012B000294802780221302000F013FB042D0ED1C2
:1012C00026480078002804DD24480078401E234981
:1012D0000870224802780621302000F002FB5046B8
:1012E0000AF1010AB0F5FA7F72D94FF0000A694697
:1012F00001A800F06AFC002D6AD19DF804200221AB
:101300002F2000F0EEFA9DF8002004212F2000F09D
:10131000E8FA9DF804000F490978884205DD9DF838
:1013200004000B49097888421ADB4FF0010819E0E4
:10133000000C014054656D703A20202043000000ED
:1013400048756D693A20202025000000202000000B
:1013500029000020280000202B0000202A00002067
:101360004FF000089DF8000034490978884205DDF7
:101370009DF8000032490978884202DB4FF00109EC
:1013800001E04FF00009B8F1010F29D1B9F1010FC7
:1013900026D1761C062E00D90026032E0FD8022E49
:1013A00006D9022327A20621002000F0C6F92AE070
:1013B000022329A20621002000F0BFF923E0052E18
:1013C00007D902231FA20621002000F0B6F91AE077
:1013D00030E0022325A20621002000F0AEF912E041
:1013E0000026B8F1010F05D102231BA2062100201F
:1013F00000F0A3F9B9F1010F05D102231BA20621C8
:10140000002000F09AF9B8F1000F02D1B9F1000FF5
:1014100005D04FF400611A48FFF711F90AE00223E2
:1014200018A20621002000F088F94FF4006114484A
:10143000FFF707F9012000F010FBB2E52A000020B9
:101440002B000020202020202020202020202020D1
:1014500020202020000000002054656D70204F7671
:10146000657272756E212020000000002048756DA5
:1014700069204F76657272756E2120200000000091
:10148000000C014053746174653A206E6F726D6197
:101490006C202000704700BFFEE700BFFEE700BFE2
:1014A000FEE700BFFEE770477047704770470000D7
:1014B00008B501210820FFF7D3FC4FF40060ADF818
:1014C000000010208DF8030003208DF8020069460B
:1014D0000448FFF707F84FF400610248FFF7B1F83E
:1014E00008BD0000000C014000B585B00121480591
:1014F000FFF7C3FC01210820FFF7B2FCC020ADF8C4
:10150000000003208DF802001C208DF803006946BE
:10151000FA48FEF7E7FFFA48FFF732F90020ADF886
:1015200008004BF6FF70ADF80A003020ADF80C0053
:101530004FF48060ADF80E000001ADF81000F148E6
:1015400001900121EE48FFF7B2F901A9EC48FFF73D
:1015500030F905B000BD70B504460D4600BF4FF42C
:101560000031E748FFF7CAFA0028F8D10121E44822
:10157000FFF7C1F900BFE449E148FFF79DFA0028F1
:10158000F9D000227821DE48FFF70BFA00BFDF49CF
:10159000DB48FFF791FA0028F9D02146D848FFF739
:1015A000FAF900BFD949891CD548FFF785FA002808
:1015B000F8D02946D248FFF7EEF900BFD349891C7D
:1015C000CF48FFF779FA0028F8D00121CC48FFF77F
:1015D0009EF970BD10B5044621460020FFF7BBFF01
:1015E00010BD10B5044621464020FFF7B4FF10BDE2
:1015F00010B5642000F031FAAE20FFF7EBFF202099
:10160000FFF7E8FF1020FFF7E5FFB020FFF7E2FF4C
:10161000C820FFF7DFFF0020FFF7DCFF1020FFF7F7
:10162000D9FF4020FFF7D6FF8120FFF7D3FFFF202F
:10163000FFF7D0FFA120FFF7CDFFA620FFF7CAFFDD
:10164000A820FFF7C7FF3F20FFF7C4FFA420FFF744
:10165000C1FFD320FFF7BEFF0020FFF7BBFFD5205F
:10166000FFF7B8FFF020FFF7B5FFD920FFF7B2FF73
:101670002220FFF7AFFFDA20FFF7ACFF1220FFF7C1
:10168000A9FFDB20FFF7A6FF2020FFF7A3FF8D2097
:10169000FFF7A0FF1420FFF79DFFAF20FFF79AFF91
:1016A00010BD70B504460D4605F1B001C8B2FFF794
:1016B00091FF102141EA1410FFF78CFF04F00F0195
:1016C00041F00100FFF786FF70BD70B506460024AB
:1016D00015E004F1B001C8B2FFF77CFF0020FFF76E
:1016E00079FF1020FFF776FF002504E03046FFF772
:1016F00078FF681CC5B2802DF8DB601CC4B2082CD2
:10170000E7DB70BD10B50020FFF7DFFF10BD10B59F
:101710008D20FFF75FFF1420FFF75CFFAF20FFF77E
:1017200059FF10BD10B58D20FFF754FF1020FFF7B3
:1017300051FFAE20FFF74EFF10BD2DE9F0470646E2
:10174000894617469A464FF0000800240025BAF152
:10175000010F03D0BAF1020F5ED125E020E0785DE1
:10176000203800F0FF087E2E04DD002609F101007C
:1017700000F0FF0949463046FFF793FF002409E0D7
:1017800008EB4801624A02EB4101085DFFF729FFBF
:10179000601CC4B2062CF3DBB01DC6B2681CC5B217
:1017A000785D0028DBD137E032E0785D203800F04A
:1017B000FF08782E04DD002609F1010000F0FF0982
:1017C00049463046FFF76DFF002407E004EB08119F
:1017D000504A505CFFF705FF601CC4B2082CF5DBD3
:1017E00009F10100C1B23046FFF75BFF002408E0B9
:1017F00004EB08110831474A505CFFF7F2FE601C09
:10180000C4B2082CF4DB06F10800C6B2681CC5B2ED
:10181000785D0028C9D100BF00BFBDE8F0872DE981
:10182000F04180460E46174600247D013146404671
:10183000FFF737FF00BF06E03749485DFFF7D1FEED
:101840006D1C601CC4B2102CF6DB701CC1B240468B
:10185000FFF727FF002406E02F49485DFFF7C1FE90
:101860006D1C601CC4B2102CF6DBBDE8F0812DE9C4
:10187000F05F06460F4690461C46DDF828A04FF064
:10188000000BE11704EB5171C910A4EBC10131B990
:101890002046E11704EB5171C1F3C70506E020466D
:1018A000E11704EB5171C910491CCDB23D4614E05B
:1018B00029463046FFF7F5FEB1460AE059460BF1DE
:1018C000010B1AF80100FFF78CFE09F1010000F08E
:1018D000FF09C145F2DB681CC5B2A542E8DBBDE8E3
:1018E000F09F2DE9F04106460F4615460024394683
:1018F0003046FFF7D6FE00BF1EE00000000C01409E
:1019000000540040801A0600010003008200070016
:10191000041E00082C2000082C0000200A2095FB43
:10192000F0F0103004EB00102C4911F80080404614
:10193000FFF757FE601CC4B2082CEFDB781CC1B265
:101940003046FFF7AEFE00240EE00A2095FBF0F0D3
:10195000103004EB00100830204911F80080404698
:10196000FFF73FFE601CC4B2082CEEDB06F1080155
:10197000C8B23946FFF795FE00240FE00A2095FB18
:10198000F0F100FB1150103004EB0010134911F876
:1019900000804046FFF725FE601CC4B2082CEDDB3A
:1019A0007A1CD1B206F10802D0B2FFF77AFE002409
:1019B00010E00A2095FBF0F100FB1150103004EB11
:1019C00000100830054911F800804046FFF709FE75
:1019D000601CC4B2082CECDBBDE8F0812C200008B0
:1019E00010B56FF00400FEF7FEFC3448006834497F
:1019F000B0FBF1F0334908700846007800EB400175
:101A0000C1EBC0104FF6FF7101EAC0002E490880FB
:101A100010BD01462B4A12784A434FF0E0235A6129
:101A200000229A611A46126942F001021A6100BF4F
:101A30004FF0E022106900F001021AB100F4803288
:101A4000002AF5D04FF0E022126922F001024FF097
:101A5000E0231A6100229A61704701461A4A1288EF
:101A60004A434FF0E0235A6100229A611A461269F4
:101A700042F001021A6100BF4FF0E022106900F04D
:101A800001021AB100F48032002AF5D04FF0E022B2
:101A9000126922F001024FF0E0231A6100229A61DC
:101AA000704730B50446002505E04FF47A70FFF723
:101AB000D4FF681CC5B2A542F7D330BD000000209A
:101AC00000127A008C0200208E02002010B56348BC
:101AD000406820F47000614948600846406840F45E
:101AE0004010486000205E4908601420FFF7B5FFF1
:101AF00001205C49C1F8B4011E20FFF78AFF10BD28
:101B000010B500245548406820F4700053494860DF
:101B10000846406840F40000486004E0601CC4B21D
:101B20000120FFF776FF4E488038006808B1642C2A
:101B3000F4DB642C01DB012010BD002404E0601CF8
:101B4000C4B20120FFF765FF45488038006808B936
:101B5000642CF4DB642C01DB0120EDE70020EBE7D3
:101B600010B5002404E0601CC4B20120FFF751FF4F
:101B70003B488038006808B1642CF4DB002404E0A2
:101B8000601CC4B20120FFF744FF3548803800686C
:101B900008B9642CF4DB2820FFF73BFF304880387D
:101BA000006808B1012010BD0020FCE770B50024DA
:101BB000002506E06006040EFFF7D2FF0443681C10
:101BC000C5B2082DF6DB204670BD7CB505460E4635
:101BD000FFF77CFFFFF794FFF8B9002405E0FFF75B
:101BE000E5FF0DF80400601CC4B2052CF7DB9DF87E
:101BF00000009DF8011008449DF8021008449DF86B
:101C0000031008449DF80410884208D19DF8000094
:101C100030709DF80200287001E001207CBD00209A
:101C2000FCE708B501211020FFF71AF94FF4005026
:101C3000ADF8000010208DF8030003208DF802009D
:101C400069460648FEF74EFC4FF400510348FEF784
:101C5000F6FCFFF73BFFFFF753FF08BD0010014004
:101C6000B40122420000224208B501210820FFF7FA
:101C7000F7F801213A48FEF706FD4FF48050ADF821
:101C8000000048208DF8030069463648FEF72AFC1C
:101C90004FF40050ADF8000048208DF8030069466D
:101CA0003048FEF71FFC4FF48040ADF8000048209C
:101CB0008DF8030069462B48FEF714FC08BD10B5EB
:101CC000044614B10120284908702748007878B3E9
:101CD0004FF480512348FEF798FC58B14FF400515F
:101CE0002048FEF792FC28B14FF480411D48FEF7D2
:101CF0008CFCE8B90A20FFF7B0FE00201A490870F2
:101D00004FF480511748FEF780FC08B9012010BD40
:101D10004FF400511348FEF778FC08B90220F6E7AB
:101D20004FF480410F48FEF770FCB8B90320EEE78E
:101D3000FFE74FF480510B48FEF767FC01280DD1F7
:101D400041030848FEF761FC012807D181030548DB
:101D5000FEF75BFC012801D1034908700020D6E79B
:101D600000023000000C014090020020064C074D9C
:101D700006E0E06840F0010394E80700984710345B
:101D8000AC42F6D3FEF7D8F91C2600083C26000822
:101D900070B58C1810F8015B15F0070301D110F82D
:101DA000013B2A1106D110F8012B03E010F8016B5A
:101DB00001F8016B5B1EF9D12B0705D40023521EDD
:101DC0000DD401F8013BFAE710F8013BCB1A921C45
:101DD00003E013F8015B01F8015B521EF9D5A14243
:101DE000D8D3002070BD02E008C8121F08C1002A25
:101DF000FAD170477047002001E001C1121F002A8C
:101E0000FBD170470000000000000000002F000020
:101E100000000700070000147F147F1400242A7FAD
:101E20002A1200626408132300364955225000002C
:101E30000503000000001C224100000041221C009C
:101E40000014083E08140008083E0808000000A01E
:101E5000600000080808080800006060000000201A
:101E600010080402003E5149453E0000427F4000F8
:101E7000004261514946002141454B31001814127E
:101E80007F10002745454539003C4A49493000014B
:101E90007109050300364949493600064949291E9A
:101EA00000003636000000005636000000081422FC
:101EB00041000014141414140000412214080002FC
:101EC0000151090600324959513E007C1211127C21
:101ED000007F49494936003E41414122007F41414E
:101EE000221C007F49494941007F09090901003E40
:101EF0004149497A007F0808087F0000417F41007E
:101F0000002040413F01007F08142241007F4040F3
:101F10004040007F020C027F007F0408107F003EDB
:101F20004141413E007F09090906003E4151215EC1
:101F3000007F091929460046494949310001017FBE
:101F40000101003F4040403F001F2040201F003F54
:101F50004038403F00631408146300070870080706
:101F600000615149454300007F41410000552A5519
:101F70002A55000041417F00000402010204004094
:101F800040404040000001020400002054545478B6
:101F9000007F4844443800384444442000384444D6
:101FA000487F00385454541800087E090102001874
:101FB000A4A4A47C007F080404780000447D4000B1
:101FC000004080847D00007F102844000000417F95
:101FD0004000007C04180478007C08040478003871
:101FE0004444443800FC242424180018242418FCF9
:101FF000007C0804040800485454542000043F4462
:102000004020003C4040207C001C2040201C003C24
:102010004030403C004428102844001CA0A0A07C74
:10202000004464544C4414141414141400000000AC
:10203000000000000000000000000000000000F8A8
:1020400000000000000000333000000000100C060B
:10205000100C0600000000000000000040C07840A6
:10206000C0784000043F04043F040400007088FC72
:1020700008300000001820FF211E0000F008F000CA
:10208000E018000000211C031E211E0000F008883B
:10209000700000001E2123241927211010160E00A5
:1020A000000000000000000000000000000000E050
:1020B0001804020000000007182040000002041865
:1020C000E00000000040201807000000404080F0C1
:1020D000804040000202010F01020200000000F0F7
:1020E000000000000101011F0101010000000000CB
:1020F0000000000080B07000000000000000000040
:1021000000000000000101010101010100000000C8
:10211000000000000030300000000000000000005F
:1021200080601804006018060100000000E010083C
:102130000810E000000F102020100F00001010F811
:10214000000000000020203F202000000070080850
:1021500008887000003028242221300000300888D0
:10216000884830000018202020110E000000C020F8
:1021700010F8000000070424243F240000F8088819
:10218000880808000019212020110E0000E01088A6
:1021900088180000000F112020110E0000380808D8
:1021A000C83808000000003F0000000000708808E8
:1021B00008887000001C222121221C0000E0100869
:1021C0000810E0000000312222110F00000000C0C2
:1021D000C00000000000003030000000000000805F
:1021E000000000000000806000000000000080404F
:1021F0002010080000010204081020004040404068
:1022000040404000040404040404040000081020BA
:1022100040800000002010080402010000704808FF
:102220000808F0000000003036010000C030C82867
:10223000E810E0000718272423140B000000C03822
:10224000E0000000203C23020227382008F888889C
:1022500088700000203F202020110E00C0300808A8
:1022600008083800071820202010080008F808087F
:102270000810E000203F202020100F0008F8888878
:10228000E8081000203F20202320180008F8888844
:10229000E8081000203F200003000000C0300808BC
:1022A0000838000007182020221E020008F8080045
:1022B0000008F808203F210101213F20000808F80C
:1022C000080800000020203F20200000000008082F
:1022D000F8080800C08080807F00000008F888C0EF
:1022E00028180800203F20012638200008F80800A0
:1022F00000000000203F20202020300008F8F800D7
:10230000F8F80800203F003F003F200008F830C0E8
:102310000008F808203F200007183F00E0100808D8
:102320000810E0000F10202020100F0008F8080807
:102330000808F000203F210101010000E01008081A
:102340000810E0000F18242438504F0008F888883F
:1023500088887000203F2000030C3020007088081F
:10236000080838000038202121221C00180808F82D
:10237000080818000000203F2000000008F80800AE
:102380000008F808001F202020201F00087888007F
:1023900000C83808000007380E010000F80800F8EF
:1023A0000008F800033C0700073C03000818688099
:1023B0008068180820302C03032C30200838C8000F
:1023C000C83808000000203F20000000100808085E
:1023D000C83808002038262120201800000000FE00
:1023E000020202000000007F40404000000C30C0AC
:1023F00000000000000000010638C00000020202D8
:10240000FE000000004040407F0000000000040289
:1024100002020400000000000000000000000000B4
:1024200000000000808080808080808000020204A4
:10243000000000000000000000000000000080809C
:10244000808000000019242222223F2008F800800A
:1024500080000000003F112020110E0000000080CD
:1024600080800000000E112020201100000000805C
:102470008088F800000E112020103F20000080808E
:1024800080800000001F222222221300008080F0A2
:10249000888888180020203F2020000000008080CD
:1024A00080808000006B94949493600008F8008012
:1024B00080800000203F210000203F20008098986D
:1024C000000000000020203F2020000000000080CD
:1024D0009898000000C08080807F000008F800000D
:1024E00080808000203F24022D302000000808F862
:1024F000000000000020203F20200000808080801D
:1025000080808000203F20003F20003F80800080AE
:1025100080800000203F210000203F2000008080BC
:1025200080800000001F202020201F00808000806D
:102530008000000080FFA12020110E00000000801C
:1025400080808000000E112020A0FF80808080000D
:102550008080800020203F2120000100000080803A
:10256000808080000033242424241900008080E02F
:10257000808000000000001F2020000080800000FC
:1025800000808000001F202020103F2080808000DD
:102590000080808000010E300806010080800080ED
:1025A000008080800F300C030C300F000080800012
:1025B000808080000020312E0E312000808080003D
:1025C0000080808080818E701806010000808080ED
:1025D000808080000021302C22213000000000008B
:1025E000807C020200000000003F4040000000002C
:1025F000FF00000000000000FF0000000002027C5D
:10260000800000000040403F000000000006010183
:102610000202040400000000000000003C26000844
:102620000000002094020000901D0008E42700082C
:102630009402002004040000F61D00081184A24A40
:1026400004680901020304060708090C69105811FF
:10265000020406080A280C3C8080C0C0E0A09080DC
:102660000129267C0103023F11180E048484FCFC1E
:102670008484040484E4FC9C07100D2060603F1FE8
:102680001014060301FFFF20240107061010FFFFAE
:102690001030A4ACBDB7B6BCACA4202010303F1F96
:1026A0008888CF7F3A0A7AFA8F8FE0E0137E7E1017
:1026B0000BFFFF40703F0F147464041E40407E7E89
:1026C0004203290418127E7E40401070628E8CFEF8
:1026D000FEF2F2FEFEF8F853301004047E7F81C74C
:1026E000773F1F372747C7FF7F300D22323AAEA60C
:1026F000E2633119898101100F4262331B4BC2FE24
:102700007E020A1A33674618182030BCEF733088EF
:10271000C8E8B99F8EA8E8C888226767321292C0BD
:102720006F1130163F7F407171404042CECC40E087
:10273000BE9E82829EBEA02020180C3FBF98C84338
:102740006F3C386E47C1F1180F1717D5D557577D15
:102750007D5757D5D51717A03D407F7F55011B7F6B
:102760007F0D39A0111CFEFE920123FEFE29A03A26
:1027700041BC49C1212809FCFC2424FCFD27260872
:1027800008134324044070BF8F84CC5D75252575E4
:102790005DCC80808080497F79801C454C581C0E20
:1027A0001F7F7F584C4480611AFF4A190131490943
:1027B000295A591215FE225A865960392B1C0408D1
:1027C0000730100820030C142241403A02012EFE6B
:1027D00002024282097142FF430106091D40392964
:0427E00031000000C4
:0400000508000131BD
:00000001FF
