:020000040800F2
:1000000010AB002059340008A50D0008A70D00080A
:10001000AB0D0008AF0D0008B30D00080000000094
:10002000000000000000000000000000B70D000804
:10003000B90D000800000000BB0D0008BD0D000850
:1000400073340008733400087334000873340008F4
:1000500073340008733400087334000873340008E4
:1000600073340008733400081D81000873340008DD
:1000700073340008CF790008733400087334000823
:1000800073340008733400087334000873340008B4
:1000900073340008733400087334000873340008A4
:1000A0007334000873340008733400087334000894
:1000B00073340008EB180008311900087334000885
:1000C0007334000873340008733400087334000874
:1000D000733400080D33000841140008E579000866
:1000E0007334000873340008733400087334000854
:1000F0007334000873340008733400087334000844
:100100007334000873340008733400087334000833
:10011000ED1F0008733400087334000879220008CA
:100120007334000873340008733400087334000813
:10013000DFF80CD00DF00AFA00480047E10600088D
:1001400010AB00200EB54FF4A06003F01BFF03F0CE
:1001500019F84FF4E13003F08DF802F033F9FE485E
:10016000008802F026FA00F01BFF00F041FF05F0C6
:10017000DAF90CF0ABFCF94901220868F8A10AF0A1
:100180003AFEF64901224868F6A10AF034FE4FF41F
:10019000165001F083F901F001FC0AE0002018215B
:1001A000F1A20B46CDE900210290EF22014609F0B1
:1001B000ACF907F0EEFF0028F0D11821EFA20B46B2
:1001C000CDE900210290EF22014609F09EF908F0E6
:1001D0006FF80EBDFEB50027002500260024DE487E
:1001E000008802F0E6F90826182404FB06F1C1F1A4
:1001F000F00000EBD0714910491ECFB20020182149
:10020000E2A20B46CDE900210290EF2229463846B2
:1002100009F07BF925442035072600BF04FB06F1D1
:10022000C1F1F00000EBD0714910491ECFB200209F
:100230001821DBA20B46CDE900210290EF222946CE
:10024000384609F062F9254400BF00BF04FB06F1FF
:10025000C1F1F00000EBD0714910491ECFB200206F
:100260001821D3A20B46CDE900210290EF222946A6
:10027000384609F04AF92819C5B200BF00BF04FB8F
:1002800006F1C1F1F00000EBD0714910491ECFB268
:1002900000201821CAA20B46CDE900210290EF22CE
:1002A0002946384609F031F92819C5B200BF00BF08
:1002B00004FB06F1C1F1F00000EBD0714910491EBA
:1002C000CFB200201821C2A20B46CDE90021029036
:1002D000EF222946384609F018F92819C5B2FEBDA3
:1002E000FEB500260024002700259B48008802F068
:1002F00060F90827182505FB07F1C1F1F00000EBB4
:10030000D0714910491ECEB2002018219FA20B4681
:10031000CDE900210290EF222146304609F0F5F8A0
:100320002C440026203400201821ADA20B46CDE934
:1003300000210290EF222146304609F0E6F82C44D5
:1003400000201821A9A20B46CDE900210290EF223E
:100350002146304609F0D9F86019C4B200201821AE
:10036000A5A20B46CDE900210290EF22214630469E
:1003700009F0CBF86019C4B200201821A1A20B46E5
:10038000CDE900210290EF222146304609F0BDF868
:100390006019C4B2002018219DA20B46CDE90021AE
:1003A0000290EF222146304609F0AFF86019C4B23E
:1003B0000020182199A20B46CDE900210290EF22DE
:1003C0002146304609F0A1F86019C4B2FEBDFEB561
:1003D00000260024002700255F48008802F0E9F885
:1003E0000827182505FB07F1C1F1F00000EBD071DB
:1003F0004910491ECEB20020182164A20B46CDE957
:1004000000210290EF222146304609F07EF82C446C
:10041000002620340020182183A20B46CDE90021BC
:100420000290EF222146304609F06FF82C4400205C
:10043000182182A20B46CDE900210290EF2221462D
:10044000304609F062F86019C4B2FEBD2DE9F041F2
:1004500086B04FF00008002400254FF080082024CB
:100460001825142101A80CF07CFC784800680CF0D9
:100470004AFE064632460B4675A101A80DF05EF90C
:100480007548038801AA2146404602F067FA2C44C9
:10049000142101A80CF065FC704908680CF033FECB
:1004A000064632460B466AA101A80DF047F96A4894
:1004B000038801AA2146404602F050FA2C44142138
:1004C00001A80CF04EFC654948680CF01CFE06467D
:1004D00032460B4662A101A80DF030F95E48038850
:1004E00001AA2146404602F039FA6019C4B214212B
:1004F00001A80CF036FC594988680CF004FE064649
:1005000032460B4658A101A80DF018F9524803884D
:1005100001AA2146404602F021FA6019C4B2142112
:1005200001A80CF01EFC4D49C8680CF0ECFD064615
:1005300032460B464EA101A80DF000F9464803884B
:1005400001AA2146404602F009FA6019C4B21421FA
:1005500001A80CF006FC91E02A010020780300209D
:10056000303A0000313A0000CEB4BCECB2E2B5BD86
:100570004C4F5241C4A3BFE900000000BCECB2E202
:10058000B5BD4C4F5241C4A3BFE90000CDC1C8C0A6
:10059000BBB7BEB3BCECB2E2CFB5CDB30000000038
:1005A000B4ABB8D0C6F7D0A3D7BCB3CCD0F2000060
:1005B000B4ABB8D0C6F7B2CECAFDCFD4CABE000025
:1005C000B4ABB8D0C6F7E3D0D6B5C9E8D6C30000FF
:1005D000B4ABB8D0C6F7CAFDBEDDB4E6B4A2000025
:1005E000CDC1C8C0CEC2B6C820203A00CDC1C8C057
:1005F000CAAAB6C820203A00CDC1C8C0CBE1BCEE23
:10060000B6C83A00CDC1C8C0B5AAC5A8B6C83A0098
:10061000CDC1C8C0C1D7C5A8B6C83A00CDC1C8C0F1
:10062000BCD8C5A8B6C83A00B0B4BCFC31CDCBB379
:10063000F6D0A3D7BCBDE7C3E6000000B0B4BCFC55
:1006400032D0A3D7BCB4ABB8D0C6F700F8000020B6
:10065000252E3266430000002C010020800400207B
:10066000252E326625250000252E3266000000006A
:10067000252E32666D6F6C2F4C000000FD49086915
:100680000CF041FD064632460B46AFF21C0101A8B4
:100690000DF054F8F848038801AA2146404602F0BC
:1006A0005DF96019C4B2142101A80CF05AFBF1499C
:1006B00048690CF028FD064632460B46AFF2500161
:1006C00001A80DF03BF8EC48038801AA21464046FA
:1006D00002F044F96019C4B206B0BDE8F081704779
:1006E00088B04FF0000AD34600200790FFF72AFD9C
:1006F0005EE0E248008801F05CFF4FF47840DE499C
:1007000008801023DEA20021084602F027F914E039
:100710001023DEA21946002002F020F9C82002F0C2
:100720006EFD4FF6FF702023EF2210210090002075
:1007300001F0A2FFC82002F062FD02F068FB002871
:10074000E6D11023D5A2194602F008F91023D6A24B
:100750002021002002F002F910226E21142008F05E
:100760001FFD044614E01023D4A23021002002F023
:10077000F5F8C82002F043FD4FF6FF704023EF224A
:1007800030210090002001F077FFC82002F037FDF3
:10079000002CE8D11023CEA23021002002F0DEF898
:1007A0004FF47A7002F02BFDB448008801F001FF8D
:1007B00008F085FD00289CD11021CBA21823CDE99B
:1007C00000210290EF22014608F09FFE472242F2EC
:1007D0000F71CA4801F054F848F69F4240F2CF71B9
:1007E000C74801F04DF8C7A1CA4802F009FEFFF75B
:1007F000F1FC91E2C8480078002832D100F020FCDA
:100800000446012C0AD1C5480078401CC349087031
:1008100008460078032801DD00200870022C0AD168
:10082000BE480078401EBD49087008460078FF2881
:1008300001D103200870032C02D10120B6490870B1
:100840000020049005900690B4480278B4A104A852
:100850000CF074FF102304AADF21002002F07EF8C0
:1008600045E2AD4800780128FAD1AC48007820B1C3
:10087000012834D0022831D12AE2FFF7A8FD29E06F
:10088000002000F0DDFB0446032C03D10020A24928
:10089000087020E0012C1DD100201821A2A20B46D7
:1008A000CDE900210290EF226821172008F02DFEEB
:1008B000FFF715FF4FF4FA7002F0A1FC0020182199
:1008C0009CA20B46CDE900210290EF228021172047
:1008D00008F01BFED4E700BFFFF77CFC06E2FFF741
:1008E000FFFC002196A007F0E6FAC82002F087FC82
:1008F000CEE1002000F0A4FB0446032C03D100202D
:1009000085490870C5E1142099FBF0F100FB1190B6
:1009100048BB01F021FB03900CF0D4FB07460022FA
:100920004FF07F530CF0DFFA05460CF0FFFB8649D1
:1009300008600EE0072300220321012000F02DFEB5
:10094000642002F05CFC8148008800F4004000B1A3
:1009500000E0EFE700BF474800F06EFE00207B4953
:100960000880FFF773FD7A48007800F00100002846
:1009700074D078480068A0EB0A00B0F5966F0CD3ED
:10098000744800881FFA80FA7148008820F0060039
:10099000801C6F49088007F033FD6D480078C0F374
:1009A000410001280BD16C4801786C4805F00EFF1E
:1009B0006749098860F342016548018000BF00BFB4
:1009C000644801680798081AB0F5C87F23D36148C6
:1009D000008880B207902748006861490860254870
:1009E000406848602348806888602248C068C860C2
:1009F0002048006908611F48406948611D484068F7
:100A0000584948601B48C068C8601A4800690861B6
:100A10001848406948615448007838B15248027813
:100A200052A13C4802F0ECFC05F0DCFD49480068AE
:100A3000A0EB0B00B0F5FA6F10D3464800881FFA00
:100A400080FB1E2005F02BFF20B950A1314802F099
:100A5000D7FC03E052A12F4802F0D2FC3C480078BA
:100A600000F00100002804D106F0FEF838480078B4
:100A7000A0E0E7E0800400202C0100202A010020F3
:100A80006D696E692053544D333200005344204346
:100A9000617264204661696C65642100534420439F
:100AA000617264204F4B0000466F6E742055706475
:100AB0006174696E672E2E2E00000000466F6E7402
:100AC00020557064617465204661696C656421001D
:100AD000466F6E742055706461746520537563634E
:100AE0006573732100000000D3B2BCFEB3F5CABC2D
:100AF000BBAFCDEAB3C921212100000000040040B2
:100B000000080040B3F5CABCBBAFCDEAB3C90D0ABB
:100B10000000000000380140F1000020F200002039
:100B20005461736B3A256400BFAACABCD0A3D7BC7A
:100B300000000000D0A3D7BCCDEAB3C9000000007C
:100B40006E645F7077720000F800002014010020CE
:100B50006C0100201C010020F0000020000000209B
:100B6000A00300208CA40020640100205741524EB5
:100B70003A094E4554204661756C742050726F637B
:100B80006573732D2D2D25640D0A00005570646169
:100B900074652054696D65204F6B0D0A00000000DC
:100BA0005570646174652054696D65204572720DDD
:100BB0000A00000000F0010058BB5848408BC0F309
:100BC000802030B356480178564806F0D8F900BB6B
:100BD0005248408BC0F34020D8B15348008820F0E1
:100BE0000100401C504908800120504908714E48BE
:100BF000008820F460704C4908804D4800881FFA36
:100C000080FA4B4800881FFA80FB4948008880B270
:100C100007904248408BC0F3802098B906F086F9CF
:100C200060B944A1484802F0EBFB3C48408B20F4FB
:100C3000806000F580603949488303E043A1424861
:100C400002F0DEFB002004900590069044480278F4
:100C5000AFF2341104A80CF071FD102304AADF21B7
:100C6000002001F07BFE09F1010000F0FF091420D3
:100C700099FBF0F100FB119038B93A48006808B9C7
:100C8000012000E0002037490860052002F0B7FA93
:100C90002FE600BFAFF2F41133A006F007F8AFF271
:100CA000FC1136A006F002F8AFF2082139A005F0D9
:100CB000FDFF1A48408B20F48060184948831A4889
:100CC000008820F0010018490880FFF783FA0DE042
:100CD00009E0002000F0B4F90446032C03D1002001
:100CE0001F49087000E0F4E700BF00BF00BF09F132
:100CF000010000F0FF09142099FBF0F100FB1190B6
:100D000038B91848006808B9012000E000201549EA
:100D10000860052002F073FA6CE5000034A10020A1
:100D2000F0000020000000206C0100206401002081
:100D30001C0100204E455420446576696365203AC5
:100D40004F6B0D0A00000000003801404E45542052
:100D5000446576696365203A4572726F720D0A00C8
:100D6000F10000208881224241542B4D49504C43D0
:100D70004C4F53453D300D0A0000000041542B4DAF
:100D800049504C44454C4F424A3D302C3332303070
:100D90000D0A000041542B4D49504C44454C3D3008
:100DA0000D0A0000704700BFFEE700BFFEE700BF6E
:100DB000FEE700BFFEE770477047704770470000CE
:100DC0000CB50020019000906C48006840F4803021
:100DD0006A49086000BF6948006800F4003000906C
:100DE0000198401C0190009818B90198B0F5A06FC7
:100DF000F1D16248006800F4003010B10120009089
:100E000001E0002000900098012843D15C48006870
:100E100040F010005A4908600846006820F00300BE
:100E200008600846006840F00200086053484068C7
:100E3000524948600846406848600846406840F4A7
:100E4000806048600846406820F47C10486008468E
:100E5000406840F4E81048600846006840F0807040
:100E6000086000BF4548006800F000700028F9D015
:100E70004248406820F00300404948600846406806
:100E800040F00200486000BF3C48406800F00C00A1
:100E90000828F9D10CBD10B5FFF792FF10BD10B5B1
:100EA0003648006840F00100344908600846406850
:100EB00034490840314948600846006832490840D2
:100EC0002E4908600846006820F480200860084623
:100ED000406820F4FE0048604FF41F008860FFF770
:100EE000DAFF4FF000602949086010BD10B50021FD
:100EF00000200022214B5B6803F00C0121B1042982
:100F000006D0082928D107E0214B224C236027E096
:100F10001F4B204C236023E0184B5B6803F47010D8
:100F2000164B5B6803F48032022303EB904022B936
:100F3000194B4343174C23600DE0104B5B6803F4DF
:100F4000003323B1144B4343124C236003E0104B96
:100F50004343104C236003E00D4B0E4C236000BF55
:100F600000BF064B5B68C3F303130C4CE15C094BF9
:100F70001B68CB40074C236010BD000000100240EE
:100F8000002002400000FFF8FFFFF6FE08ED00E041
:100F900000127A00FC00002000093D000001002042
:100FA00008B50121242002F085FD4FF48070ADF8D2
:100FB000000010208DF8030003208DF80200694620
:100FC000094802F0BBFA4FF48071074802F063FB56
:100FD0000420ADF800006946044802F0AFFA04218D
:100FE000024802F058FB08BD00080140001401400F
:100FF00008B50121442002F05DFD0121364802F0D0
:101000006EFB0820ADF8000048208DF8030069460B
:10101000324802F093FA1020ADF8000048208DF815
:10102000030069462D4802F089FA0120ADF800005E
:1010300028208DF803006946294802F07FFA08BD90
:1010400010B5044614B101202649087025480078DF
:1010500058B31021214802F004FB50B108211F4869
:1010600002F0FFFA28B101211D4802F0FAFA012826
:101070001BD10A2002F0C3F800201A490870102181
:10108000164802F0EEFA08B9012010BD08211348F5
:1010900002F0E7FA08B90220F7E70121104802F050
:1010A000E0FA012815D10320EFE710210B4802F0E8
:1010B000D8FA01280DD10821084802F0D2FA0128F7
:1010C00007D10121064802F0CCFA10B901200549E8
:1010D00008700020D9E7000000023000001801402D
:1010E000000801401001002010B500240020D04964
:1010F0000860902001F0D2FF002001F0CFFF002017
:1011000001F0CCFF002001F0C9FFFF2001F0C6FF75
:1011100044EA0024FF2001F0C1FF04430120C54937
:10112000C1F88401204610BD08B50121042002F059
:10113000C1FC1220ADF8000010208DF80300032040
:101140008DF802006946BC4802F0F8F91221BA484D
:1011500002F0A1FA01F0C9FF082001F0FCFFFFF73F
:10116000C3FFB649088008BD10B500240020B0496F
:101170000860052001F092FFFF2001F08FFF044678
:101180000120AC49C1F88401204610BD10B50446C9
:101190000020A7490860012001F080FF204601F0EF
:1011A0007DFF0120A349C1F8840110BD10B50020C6
:1011B0009F490860062001F071FF01209D49C1F898
:1011C000840110BD10B5002099490860042001F089
:1011D00065FF01209749C1F8840110BD2DE9F04158
:1011E00006460C461746002091490860032001F08E
:1011F00055FFC4F3074001F051FFC4F3072001F08D
:101200004DFFE0B201F04AFF002505E0FF2001F0AC
:1012100045FF7055681C85B2BD42F7DB012084494B
:101220000860BDE8F08110B500BFFFF79DFF00F03A
:1012300001000028F9D110BD2DE9F04106460C4609
:101240001746FFF7B3FF002079490860022001F03C
:1012500025FFC4F3074001F021FFC4F3072001F08C
:101260001DFFE0B201F01AFF002504E0705D01F0FF
:1012700015FF681C85B2BD42F8DB01206C4908608F
:10128000FFF7D1FFBDE8F0812DE9F04107460E469A
:101290001446F0B2C0F58075AC4200DC254612E081
:1012A0002A4631463846FFF7C7FFAC4200D10BE073
:1012B0002F442E44601B84B2B4F5807F02DD4FF4CE
:1012C000807500E02546EBE700BFBDE8F08110B572
:1012D00004462403FFF76AFFFFF7A5FF00205449E7
:1012E0000860202001F0DAFEC4F3074001F0D6FECA
:1012F000C4F3072001F0D2FEE0B201F0CFFE0120DE
:101300004C49C1F88401FFF78EFF10BD2DE9F05F55
:101310008346884616464FF4805004F093F982467F
:10132000BAF1000F01D1BDE8F09F4FEA1837C8F3BA
:101330000B09C9F58054A64200DC344641E039036C
:101340004FF480525046FFF749FF002508E009EBB3
:1013500005001AF80000FF2800D003E0681C85B2E1
:10136000A542F4DB00BFA54215DA3846FFF7AFFF10
:10137000002507E01BF8050005EB09010AF801004C
:10138000681C85B2A542F5DB39034FF48052504604
:10139000FFF77AFF04E0224641465846FFF774FF04
:1013A000A64200D10EE07F1C4FF00009A344A044E8
:1013B000301B86B2B6F5805F02DD4FF4805400E04A
:1013C0003446BCE700BF504604F030F900BFAAE73E
:1013D00010B5FFF7EBFEFFF726FF00201449086069
:1013E000C72001F05BFE01201249C1F88401FFF71C
:1013F0001AFF10BD10B500200D490860B92001F09A
:101400004DFE01200B49C1F88401032001F0D3FEF9
:1014100010BD10B5002006490860AB2001F03EFE6B
:1014200001200449C1F88401032001F0C4FE10BD6D
:1014300084012142000021420008014012010020E5
:1014400010B540F22551404802F058FD90B13F4898
:10145000008800F4004068B93B48001D00883B4903
:101460000988C1F30D013A4A505438480088401C9D
:101470003649088040F22441334802F03FFD60B114
:101480003248008840F40040304908802E480088E7
:10149000C4B22D48001D0088C4B210BD10B586B07E
:1014A00004460121042002F005FB0121480402F05A
:1014B0000EFB254802F062FB0420ADF8100003206B
:1014C0008DF8120018208DF8130004A9214802F0AD
:1014D00035F80820ADF8100004208DF8130004A999
:1014E0001C4802F02BF800940020ADF80400ADF881
:1014F0000600ADF80800ADF80C000C20ADF80A00AD
:101500006946114802F07DFB012240F224410E4859
:1015100002F00FFC012240F225510B4802F009FCB9
:1015200026208DF8140003208DF815008DF8160084
:1015300001208DF8170005A802F029FD01210248BD
:1015400002F0EBFB06B010BD004400401401002087
:10155000B80300200008014070B502460C46FF2584
:10156000FF2309E012F8010B80EA05019448405C72
:1015700080EA03059348435C201EA4F10106B4B23F
:10158000F0D143EA052070BD00208F490860486013
:101590008860C8600861486170472DE9FC470746CC
:1015A000884615461E460024A2462146641C0DF8B6
:1015B00001702146641C0DF801802A122146641C2A
:1015C0000DF80120EAB22146641C0DF80120321208
:1015D0002146641C0DF80120F2B22146641C0DF86E
:1015E000012021466846FFF7B7FF81464FEA2922CE
:1015F0002146641C0DF8012009F0FF022046611C01
:10160000CCB20DF80020A2460020704908800024CA
:101610000DE01DF804106E4802F0ECFB00BF402105
:101620006B4802F055FC0128F9D1601CC4B2544546
:10163000EFDBBDE8FC8770472DE9F84F04464FF01B
:101640000009CA46CB466148008800F400400028E3
:101650007ED05E4890F80090A9F1020081B25D480A
:10166000FFF77AFF8246A9F101005A49085C0AF0A7
:10167000FF0188426DD1A9F102005649085CB0EB28
:101680002A2F7FD108460079C97800EB012B5846F4
:101690000BF00AFD00900BF036FD074600224E4B82
:1016A0000BF093FC05460BF041FD606049488079E2
:1016B0004849497900EB012B58460BF0F5FC0090A6
:1016C0000BF021FD07460022434B0BF07EFC054644
:1016D0000BF02CFD20603F48807A3E49497A00EBB0
:1016E000012B58460BF0E0FC00900BF00CFD074678
:1016F0000022394B0BF069FC05460BF017FDA0608A
:101700003448007B3349C97A00EB012B58460BF073
:10171000CBFC00900BF0F7FC074600222E4B0BF0A1
:1017200054FC05460BF002FDE0602A48807B294905
:10173000497B00EB012B58460BF0B6FC00900BF0F8
:10174000E2FC05460022244B0BF03FFC074601E07B
:101750001BE017E00BF0EAFC20611E48007C1D49ED
:10176000C97B00EB012B58460BF09EFC00900BF060
:10177000CAFC05460022184B0BF027FC07460BF06D
:10178000D5FC6061002011490880BDE8F88F10B5D4
:1017900004460EE00123002203211846FFF7FDFE58
:1017A000052001F02CFD0948008800F4004000B13C
:1017B00000E0EFE700BF00200449088010BD0000F2
:1017C00040E1000840E200088004002014010020ED
:1017D00000440040B80300200000244070B588B0E9
:1017E00006460C4615466348864204D10121C014C2
:1017F00002F060F907E00121102002F05BF90121FD
:10180000480302F057F918208DF81F004FF40070BC
:10181000ADF81C0003208DF81E0007A9564801F002
:101820008DFE0020ADF81600ADF81200ADF81440A2
:10183000ADF8105004A9304602F06CFE6020ADF8FF
:1018400000000120ADF802000220ADF808000020E1
:10185000ADF806006946304602F073FF01213046BC
:1018600003F0C0F90821304603F0FFFA01213046A9
:1018700003F0ACFA0121304603F0A8F908B070BDBE
:101880007FB506460C4615463C48864207D10121E5
:10189000022002F01CF91D208DF8000006E0012155
:1018A000042002F014F91E208DF800000020ADF88D
:1018B0000600ADF80840ADF8045001A9304602F02A
:1018C00029FE01221146304603F09BF901208DF8D4
:1018D00003008DF801008DF80200684602F057FB06
:1018E0000121304603F072F97FBD10B50121234874
:1018F00003F035FC01281AD121480068401C20491A
:10190000086010F1060F01D30020086000211B4879
:1019100003F05CF91B4801781B4804F0C6FF012165
:10192000164803F053F90121144803F029FC10BDB7
:1019300010B50121154803F012FC012819D11448F3
:10194000007800F0010068B912480088401C80B29D
:10195000104908803C2808DB0020088003200E493D
:10196000087002E000200B4908800121074803F0BD
:1019700007FC10BD002C0140001001400004004095
:101980001C010020F00000200000002000080040A2
:101990006C010020180100206401002008B501211D
:1019A000082002F087F8C020ADF8000014208DF860
:1019B000030003208DF802006946FD4801F0BEFDDA
:1019C000C021FB4801F067FE08BD322000BF011EA8
:1019D000A0F10102D0B2FAD1704700B58020F449DD
:1019E0001031086040200860FFF7EFFFF048083032
:1019F000006800F0800010B94FF6FF7000BD802035
:101A0000EB4914310860FFF7E0FFE948083000684F
:101A100000F0800010B14FF6FF70EFE74020E4497E
:101A200014310860FFF7D1FF0020E7E700B5402040
:101A3000DF4914310860FFF7C8FF8020DC4914310A
:101A40000860FFF7C2FF4020D94910310860FFF756
:101A5000BCFF8020D64910310860FFF7B6FF402058
:101A6000D34914310860FFF7B0FF00BD00B5402036
:101A7000CF4914310860FFF7A8FF8020CC4914310A
:101A80000860FFF7A2FF4020C94910310860FFF746
:101A90009CFF4020C64914310860FFF796FF00BD47
:101AA00000B54020C24914310860FFF78EFF802046
:101AB000BF4910310860FFF788FF4020BC49103152
:101AC0000860FFF782FF4020B94914310860FFF732
:101AD0007CFF00BD00B54020B54914310860FFF718
:101AE00074FF8020B24910310860FFF76EFF40207C
:101AF000AF4910310860FFF768FFAD480830006853
:101B000000F0800030B14020A949143108604FF640
:101B1000FF7000BD4020A649143108600020F8E79E
:101B200010B5034608241BE04020A1491431086089
:101B3000FFF74BFF03F0800020B180209C4910315B
:101B4000086003E080209A49143108605806030EAB
:101B5000FFF73BFF4020964910310860FFF735FF43
:101B6000201EA4F10101CCB2DED1402090491431F5
:101B7000086010BD10B50824002380208C49103166
:101B8000086015E05806030E4020894914310860AA
:101B9000FFF71BFF4020864910310860FFF715FF53
:101BA00083480830006800F0800008B143F001036A
:101BB000201EA4F10101CCB2E4D140207C491431B3
:101BC0000860184610BD10B54FF4001400BFFFF7B1
:101BD00004FF4FF6FF71884200D110BDA020FFF72F
:101BE0009FFFFFF777FF18B9FFF720FF0020F4E70A
:101BF000641E002CEBD1FFF719FF4FF6FF70ECE7E6
:101C000030B505460C46FFF7E8FE4FF6FF718842F7
:101C100000D130BDA020FFF783FFFFF75BFF4FF639
:101C2000FF71884204D1FFF701FF4FF6FF70F0E724
:101C3000200AFFF775FFFFF74DFF4FF6FF7188424F
:101C400004D1FFF7F3FE4FF6FF70E2E7E0B2FFF7D3
:101C500067FFFFF73FFF4FF6FF71884204D1FFF7A0
:101C6000E5FE4FF6FF70D4E72878FFF759FFFFF73E
:101C700031FF4FF6FF71884204D1FFF7D7FE4FF6D0
:101C8000FF70C6E7FFF7D2FEFFF79DFF4FF6FF712B
:101C9000884200D1BDE70020BBE770B504460D4681
:101CA0001646FFF79AFE4FF6FF71884200D170BDCD
:101CB000A020FFF735FFFFF70DFF4FF6FF718842B9
:101CC00004D1FFF7B3FE4FF6FF70F0E7280AFFF7E5
:101CD00027FFFFF7FFFE4FF6FF71884204D1FFF7A1
:101CE000A5FE4FF6FF70E2E7E8B2FFF719FFFFF736
:101CF000F1FE4FF6FF71884204D1FFF797FE4FF6D1
:101D0000FF70D4E70EE02078FFF70AFFFFF7E2FE4E
:101D10004FF6FF71884204D1FFF788FE4FF6FF703F
:101D2000C5E7641C301EA6F101018EB2EBD1FFF7AE
:101D30007DFEFFF748FF4FF6FF71884200D1B6E7FE
:101D40000020B4E72DE9F04707460D4614464FF052
:101D50000008C146C24600262846E91705EB9161F6
:101D60008911A5EB81111FFA81FACAF1400086B2F0
:101D70002046E11704EB9161C1F38F18E11704EBE2
:101D800091618911A4EB81111FFA81F9BAF1000F59
:101D900033D1B8F1000F0DD14A4629463846FFF736
:101DA0007CFF4FF6FF71884276D1BDE8F0870000D6
:101DB000000C01400DE0402229463846FFF76DFF38
:101DC0004FF6FF71884200D1EFE705F1400085B280
:101DD0004037B8F10000A8F101011FFA81F8EAD1FB
:101DE000B9F1000F58D04A4629463846FFF755FF4B
:101DF0004FF6FF7188424FD1D7E7B8F1000F09D1F4
:101E00004A4629463846FFF748FF4FF6FF71884299
:101E100042D1CAE7A01B84B22046E11704EB9161CE
:101E20004FEAA118E11704EB91618911A4EB81112C
:101E30001FFA81F966B1324629463846FFF72DFF71
:101E40004FF6FF71884200D1AFE7A81985B2374439
:101E50000DE0402229463846FFF71FFF4FF6FF717D
:101E6000884200D1A1E705F1400085B24037B8F1C2
:101E70000000A8F101011FFA81F8EAD1B9F1000FC1
:101E80000AD04A4629463846FFF707FF4FF6FF714A
:101E9000884201D189E7FFE7002086E770B5054653
:101EA0000E461446FFF799FD4FF6FF71884200D1A8
:101EB00070BDA020FFF734FEFFF70CFE4FF6FF7158
:101EC000884204D1FFF7B2FD4FF6FF70F0E7300A09
:101ED000FFF726FEFFF7FEFD4FF6FF71884204D1A3
:101EE000FFF7A4FD4FF6FF70E2E7F0B2FFF718FE30
:101EF000FFF7F0FD4FF6FF71884204D1FFF796FD22
:101F00004FF6FF70D4E7FFF768FD4FF6FF71884288
:101F100000D1CDE7A120FFF703FEFFF7DBFD4FF671
:101F2000FF71884204D1FFF781FD4FF6FF70BFE7D4
:101F30000CE0FFF71FFE2870012C02D1FFF7B0FD67
:101F400001E0FFF793FD6D1C601E84B2002CF0D100
:101F5000FFF76CFD0020ABE770B5FFF73EFD4FF6D5
:101F6000FF71884200D170BD9020FFF7D9FDFFF7C7
:101F7000B1FD4FF6FF71884204D1FFF757FD4FF6D0
:101F8000FF70F0E70020FFF7CBFDFFF7A3FD4FF652
:101F9000FF71884204D1FFF749FD4FF6FF70E2E779
:101FA000FFF71BFD4FF6FF71884200D1DBE7912060
:101FB000FFF7B6FDFFF78EFD4FF6FF71884204D1A3
:101FC000FFF734FD4FF6FF70CDE7FFF7D3FD064670
:101FD000FFF74CFDFFF7CEFD0446FFF761FDFFF76D
:101FE00025FD44EA06256D112846BCE710B540F2F0
:101FF00025518F4801F082FF10B38D4801F0FEFE9D
:10200000C4B28C48008800F40040C8B989480088F0
:10201000B0F5806F15DA8848007850B900218748FC
:1020200003F068F88348008818B90121834802F05A
:10203000CDFD80490888411C7E4A118080490C549E
:1020400005E07C48008840F400407A49088010BDD3
:102050001CB504460121102001F02CFD0121C8040B
:1020600001F035FD724801F089FD4FF48060ADF854
:10207000000003208DF8020018208DF80300694647
:10208000704801F05BFA4FF40060ADF800004820A2
:102090008DF8030069466B4801F050FA6A48046005
:1020A000002069498880C880088188810C20488187
:1020B0005F4801F0A6FD01215D4801F02EFE0122DE
:1020C00040F225515A4801F034FE34208DF80400C6
:1020D00002208DF8050003208DF8060001208DF800
:1020E000070001A801F053FF41F61F41632000F0F3
:1020F000D8F800204F4908800021504802F066FDC2
:102100001CBD0FB438B505A800905048009A04993A
:102110000BF028FB002000904C480AF049FE85B2E5
:1021200000240DE000BF4021414801F0D1FE00280D
:10213000F9D04648015D3E4801F05CFE601C84B267
:10214000AC42EFDB38BC5DF814FB70B505460C46BD
:10215000082D2DD2DFE805F004090E13181D2227E3
:102160004FF496603A49086022E04FF4166038490F
:1021700008601DE04FF496503549086018E04FF4B0
:1021800016503349086013E04FF496403049086018
:102190000EE04FF416402E49086009E04FF461400C
:1021A0002B49086004E04FF4E1302949086000BF82
:1021B00000BF00211E4801F0B0FD254800682249FB
:1021C00008600020C88014B9888008810FE0012CC5
:1021D00005D120031C4988808010088107E0022C6B
:1021E00005D1E002184988804FF4C0600881164983
:1021F0000F4801F006FD01210D4801F08EFD70BD74
:1022000010B5044600210A4801F087FD1CB10C20DE
:102210000D49488102E008200B4948810A490448D9
:1022200001F0EFFC0121024801F077FD10BD000034
:10223000004C0040200100208C01002000140040D0
:102240009804002000100140F00A002098080020A7
:102250002401002010B504460021284802F04AFF5E
:1022600026482C300088002024492C31088008465C
:1022700000882043088010BD10B501211F4802F0DE
:102280006EFF68B101211D4802F07AFF1C480088EA
:1022900040F400401A4908800021184802F096FCDA
:1022A00010BD7FB505460C460121202001F00FFC32
:1022B000ADF80450ADF800400020ADF80600ADF8D0
:1022C000020069460D4802F025F9012211460B482B
:1022D00002F097FC0121094802F078FC37208DF8C4
:1022E0000C0000208DF80D0002208DF80E0001205A
:1022F0008DF80F0003A801F04AFE7FBD00140040D6
:102300002001002070B50446002517E04021FE485A
:1023100001F0C3F904F0800020B18021FA4801F0F7
:10232000BAF903E08021F84801F0B7F94021F648F6
:1023300001F0B1F96006040E681CC5B2082DE5DB9A
:1023400070BD10B504464FF40071EF4801F0A3F9D9
:102350002046FFF7D7FF10BD10B504464FF40071BB
:10236000E94801F098F92012FFF7CCFFE0B2FFF73F
:10237000C9FF10BD10B504464FF40071E24801F0EA
:102380008CF92046FFF7BEFF10BD2DE9F04107464E
:102390000C4615461E462A20FFF7ECFF3846FFF78D
:1023A000DBFF2846FFF7D8FF2B20FFF7E3FF20468F
:1023B000FFF7D2FF3046FFF7CFFF2C20FFF7DAFF01
:1023C000BDE8F08108B50121102001F073FB4FF446
:1023D000F860ADF8000010208DF8030003208DF8A0
:1023E00002006946C84801F0A9F84FF4F861C648F0
:1023F00001F051F90121202001F05CFB0420ADF82F
:10240000000010208DF8030003208DF802006946BB
:10241000BE4801F093F80421BC4801F03CF94FF4A8
:102420008071B94801F039F9C82000F0E8FE4FF496
:102430008071B54801F02FF9142000F0E0FE4FF450
:102440008061B14801F027F93620FFF793FF0020A3
:10245000FFF777FF3A20FFF78DFF0520FFF771FFA9
:10246000B220FFF787FF0C20FFF76BFF0C20FFF770
:1024700068FF0020FFF765FF3320FFF762FF33207E
:10248000FFF75FFFB720FFF775FF3520FFF759FF14
:10249000BB20FFF76FFF1920FFF753FFC020FFF7A6
:1024A00069FF2C20FFF74DFFC220FFF763FF0120DB
:1024B000FFF747FFC320FFF75DFF1220FFF741FF43
:1024C000C420FFF757FF2020FFF73BFFC620FFF790
:1024D00051FF0F20FFF735FFD020FFF74BFFA4205F
:1024E000FFF72FFFA120FFF72CFFE020FFF742FFAF
:1024F000D020FFF726FF0420FFF723FF0D20FFF772
:1025000020FF1120FFF71DFF1320FFF71AFF2B20DC
:10251000FFF717FF3F20FFF714FF5420FFF711FFCD
:102520004C20FFF70EFF1820FFF70BFF0D20FFF7E1
:1025300008FF0B20FFF705FF1F20FFF702FF2320F6
:10254000FFF7FFFEE120FFF715FFD020FFF7F9FEB0
:102550000420FFF7F6FE0C20FFF7F3FE1120FFF733
:10256000F0FE1320FFF7EDFE2C20FFF7EAFE3F20E0
:10257000FFF7E7FE4420FFF7E4FE5120FFF7E1FEFE
:102580002F20FFF7DEFE1F20FFF7DBFE1F20FFF7E7
:10259000D8FE2020FFF7D5FE2320FFF7D2FE212012
:1025A000FFF7E8FE1120FFF7E5FE2920FFF7E2FE26
:1025B00008BD70B50646EF231A4600210846FFF70E
:1025C000E4FE00240AE0002504E03046FFF7C4FEE4
:1025D000681C85B2F02DF8DB601C84B2F02CF2DBB5
:1025E00070BD2DE9F05F81468A4693461C46102C4B
:1025F00000D1474D202C00D1464D0AEB0400401E6F
:1026000083B209EB0400401E82B251464846FFF7F0
:10261000BCFE04FB04F0C11700EB5171C1F3C70805
:102620000BFB0855002715E000260EE02878012155
:10263000B140084018B10A98FFF78EFE03E0364813
:102640000088FFF789FE701CC6B2082EEEDB6D1CF9
:10265000781CC7B24745E7DBBDE8F09F70B504467C
:102660000D4616462B46224629462046FFF78DFE8C
:102670003046FFF771FE70BD2DE9F04704460D4668
:1026800016461F46DDF820A03B4632462946204626
:10269000FFF77BFEA8460EE0A14606E05046FFF796
:1026A0005BFE09F101001FFA80F9B145F6DD08F182
:1026B00001001FFA80F8B845EEDDBDE8F087F8B5F7
:1026C00004460D4616466F1CBBB2671CBAB26F1E9D
:1026D000B9B2671EB8B20096FFF7CEFFF8BD2DE97C
:1026E000FF4F85B081468A460020039083460798B5
:1026F000A0EB09040898A0EB0A06CDF80890CDF8E5
:1027000004A0002C0CDD09E0001001400014014081
:1027100028010020290100202A010020012705E0CE
:102720000CB9002702E04FF0FF376442002E02DDB3
:102730004FF0010806E016B94FF0000802E04FF034
:10274000FF386642B44201DD254600E035460020F0
:1027500004901EE0019A91B2029A90B2129AFFF789
:102760007DFF039820440390B3440398A84205DDFD
:102770000398401B0390029838440290AB4504DD57
:10278000ABEB050B0198404401900498401C80B2CB
:102790000490691C04988842DCDB09B0BDE8F08F26
:1027A0002DE9F84305460E4617469846089C3346E1
:1027B0003A46314628460094FFF791FF43462A46A1
:1027C000314628460094FFF78AFF43463A46414681
:1027D00028460094FFF783FF43463A463146384681
:1027E0000094FFF77CFFBDE8F8832DE9F04706462B
:1027F0000F46904699460025444641E07A1B91B227
:10280000321B90B24A46FFF729FF7A1B91B2321968
:1028100090B24A46FFF722FF3A1991B2721B90B26A
:102820004A46FFF71BFF3A1B91B2721B90B24A4611
:10283000FFF714FF7A1991B2321990B24A46FFF7A6
:102840000DFF3A1B91B2721990B24A46FFF706FF8C
:102850003A1991B2721990B24A46FFF7FFFE7A19FF
:1028600091B2321B90B24A46FFF7F8FE6D1C05FB91
:1028700005F004FB040108FB08F0814200DD641E42
:10288000A542BBDDBDE8F0872DE9F84F05460F46B0
:1028900016469A46DDF828B00095E02D01DCE02FC1
:1028A00001DDBDE8F88FA6F12000C6B207F10F00E8
:1028B00083B2E81D82B239462846FFF766FDBAF1B9
:1028C000000F27D1002422E004EB0610A24911F8E2
:1028D00000904FF0000812E009F0010018B15846CE
:1028E000FFF73AFD03E09D480088FFF735FD4FEA0A
:1028F0006909681C85B208F1010000F0FF08B8F111
:10290000080FE9DB009D781C87B2601CC4B2102C54
:10291000DADB21E000241DE004EB06108E4911F8FB
:1029200000904FF0000810E009F0010038B13A19AA
:1029300091B205EB080290B25A46FFF78FFE4FEABC
:10294000690908F1010000F0FF08B8F1080FEBDB9E
:10295000601CC4B2102CDFDB00BFA2E7F8B505464F
:102960000E4614461F4619E0E02D03DD002506F152
:10297000100086B2E02E06DD0020054606464FF424
:102980007840FFF716FE009722780023314628464C
:10299000FFF77AFF05F1080085B2641C2078002853
:1029A000E2D1F8BD10B50246012000E050430B1EF5
:1029B000A1F10104E1B2F9D110BD2DE9F84F0646AD
:1029C0008A4690461D46DDF828904FF0000B002403
:1029D00031E0281B401EC1B20A20FFF7E3FFB8FB1D
:1029E000F0F00A21B0FBF1F201FB1207BBF1000F7E
:1029F00011D1681EA0420EDD5FB9082101FB046100
:102A000088B2002320225146CDF80090FFF73CFF0A
:102A10000FE04FF0010B07F13001CAB2082101FBB2
:102A2000046188B200235146CDF80090FFF72CFFD7
:102A300000BF601CC4B2AC42CBDBBDE8F88F2DE90F
:102A4000F84F06468A4617461C46DDF8288044495A
:102A500038460AF0D8F900900AF041FB1FFA80FBD3
:102A600000252EE0601B401EC1B20A20FFF79AFF2E
:102A7000BBFBF0F00A21B0FBF1F201FB1209A01E32
:102A8000A8420FD1A11E082202FB016188B20023D7
:102A90002E225146CDF80080FFF7F6FE681CC5B225
:102AA000601CC4B209F13001CAB2082101FB056102
:102AB00088B200235146CDF80080FFF7E5FE681C80
:102AC000C5B2A542CEDBBDE8F88F2DE9F05F054623
:102AD0000E4617469846DDF828904FF0000BB9F1E6
:102AE000050F13D2DFE809F00306090C0F00DFF829
:102AF00074B00EE0DFF870B00BE0DFF870B008E003
:102B0000DFF86CB005E0DFF86CB002E0DFF854B03D
:102B100000BF00BF781B401CA8EB0601491C4843BE
:102B20001FFA80FA43463A4631462846FFF72DFC05
:102B300000240CE0012101EB44011BF80100FFF728
:102B400000FC1BF81400FFF7FCFB601C84B254452A
:102B5000F0DBBDE8F09F000040E300082A01002000
:102B60000000C84230E90008500501087021010842
:102B7000903D0108B059010810B50446204600F008
:102B80008DFA10BD10B5382000F0E5FA10BD10B573
:102B9000102000F0E0FA10BD08B50121042000F07B
:102BA00089FF1220ADF8000010208DF803000320EB
:102BB0008DF802006946F64800F0C0FC1221F44886
:102BC00000F069FD00F091FA0120F249086008BDAB
:102BD00010B50120EF490860FF20FFF7CDFF10BDC1
:102BE00010B5002400BFFF20FFF7C6FFFF2801D16A
:102BF000002010BD641C6FF07F408442F3D301209D
:102C0000F7E710B50020E3490860FFF7E9FF08B9CE
:102C1000002010BDFFF7DCFF0120FAE770B5054684
:102C20004FF6FF7401E0601E84B2FF20FFF7A4FF9F
:102C3000A84201D0002CF6D10CB9FF2070BD0020B5
:102C4000FCE770B504460D46FE20FFF7E7FF08B12C
:102C5000012070BD04E0FF2000F020FA2070641C09
:102C6000281EA5F101018DB2F5D1FF20FFF784FFE9
:102C7000FF20FFF781FF0020EBE770B506460D4609
:102C8000FFF7AEFF08B1012070BD2846FFF774FFC3
:102C9000FD2D19D0002404E0305D00F0FFF9601C28
:102CA00084B2B4F5007FF7DBFF20FFF765FFFF205C
:102CB000FFF762FFFF20FFF75FFF044604F01F00ED
:102CC000052801D00220DFE70020DDE72DE9F041F3
:102CD00005460C4617464FF00008FFF779FFFFF74F
:102CE00090FF10B1FF20BDE8F08145F04000FFF7F4
:102CF00043FF200EFFF740FFC4F30740FFF73CFF00
:102D0000C4F30720FFF738FFE0B2FFF735FF38467E
:102D1000FFF732FF0C2D02D1FF20FFF72DFF4FF000
:102D20001F0800BFFF20FFF727FF064606F08000C0
:102D300030B1B8F10000A8F1010101F0FF08F1D1B4
:102D40003046D0E770B50546012200210A20FFF782
:102D5000BDFF044624B910212846FFF772FF044640
:102D6000FFF736FF0CB1012070BD0020FCE770B505
:102D70000546012200210920FFF7A8FF044624B9D7
:102D800010212846FFF75DFF0446FFF721FF0CB135
:102D9000012070BD0020FCE77FB56846FFF7E7FF24
:102DA00010B1002004B070BD9DF8000000F0C0001C
:102DB000402809D19DF809009DF8081000EB01207A
:102DC000401C84B2A50220E09DF8050000F00F0031
:102DD0009DF80A1000EBD1109DF8091001F00301D5
:102DE00000EB4100861C9DF8080080119DF807103B
:102DF00000EB81009DF8061001F0030100EB81203B
:102E0000441CA6F1090004FA00F52846CAE7F8B503
:102E1000FFF7C2FEFFF7B6FE002504E0FF20FFF734
:102E2000ABFE681C85B20A2DF8DB142600BF952284
:102E300000210846FFF74AFF0446012C04D0301E4B
:102E4000A6F101018EB2F2D1002053490870012C85
:102E50004AD187224FF4D5710820FFF737FF0128A8
:102E600047D1002506E0FF20FFF786FE0DF805009C
:102E7000681C85B2042DF6DB9DF80200012879D18B
:102E80009DF80300AA2875D14FF6FE7600BF0122F7
:102E900000213720FFF71AFF012291072920FFF7B1
:102EA00015FF044624B1301EA6F101018EB2EED109
:102EB000002E5FD0012200213A20FFF707FF0028F3
:102EC00058D1002506E0FF20FFF756FE0DF805005B
:102ED000681C85B2042DF6DB9DF8000000F0400070
:102EE00018B106202C49087044E004202A490870D3
:102EF00040E0012200213720FFF7E8FE01220021F7
:102F00002920FFF7E3FE0446012C17DC02202249AA
:102F100008704FF6FE7600BF012200213720FFF730
:102F2000D5FE012200212920FFF7D0FE0446BCB1C6
:102F3000301EA6F101018EB2EED111E0012016493A
:102F400008704FF6FE7600BF012200211046FFF701
:102F5000BDFE044624B1301EA6F101018EB2F3D1AC
:102F60002EB1012251021020FFF7B0FE10B1002057
:102F700009490870FFF72CFEFFF709FE06480078A4
:102F800008B10020F8BD0CB12046FBE7AA20F9E704
:102F900000080140900121422E0100202DE9F0415E
:102FA00006460F4615463C480078062800D07F02AA
:102FB000012D0CD1012239461120FFF787FE04466E
:102FC000FCB969023046FFF73CFE044619E00122D5
:102FD00039461220FFF77AFE044600BF4FF4007115
:102FE0003046FFF72EFE044606F50076681EC0B296
:102FF000051E01D0002CF1D0012200210C20FFF78A
:1030000065FEFFF7E5FD2046BDE8F0812DE9F041C2
:1030100006460F46154620480078062800D07F0255
:10302000012D0CD1012239461820FFF74FFE04462E
:103030006CBBFE213046FFF720FE044627E0164811
:103040000078012809D0012200213720FFF73EFE39
:10305000012229461720FFF739FE0122394619209F
:10306000FFF734FE044694B900BFFC213046FFF759
:1030700004FE044606F50076681EC0B2051E01D0A7
:10308000002CF2D0FD210020FFF7F7FD0446FFF7EA
:103090009FFD2046BDE8F0812E01002070B5054659
:1030A000002405E0601CC4B2C82C01DD002070BD06
:1030B0000221314801F023F90028F3D029462E4897
:1030C00001F0CAF8002405E0601CC4B2C82C01DD80
:1030D0000020ECE70121284801F011F90028F3D085
:1030E000254801F0BBF8C0B2E1E708B5012141F283
:1030F000040000F0DFFCE020ADF8000018208DF89F
:10310000030003208DF8020069461C4800F016FAFF
:10311000E0211A4800F0BFFA0020194908804FF456
:1031200082704880002088800220C88001200881A9
:1031300040024881382088810020C8810720088209
:103140000D4800F0B3FF01210B4801F054F8FF20B7
:10315000FFF7A4FF08BD084909884FF6C772114060
:10316000054A1180114609880143118011460988DA
:1031700041F04001118070470030014000080140DB
:10318000000B002010B56FF0040000F04AFF2E483D
:1031900000682E49B0FBF1F02D4908700846007810
:1031A00000EB4001C1EBC0104FF6FF7101EAC00017
:1031B0002849088010BD0146254A12784A434FF03D
:1031C000E0235A6100229A611A46126942F0010214
:1031D0001A6100BF4FF0E022106900F001021AB13D
:1031E00000F48032002AF5D04FF0E022126922F07C
:1031F00001024FF0E0231A6100229A6170470146F4
:10320000144A12884A434FF0E0235A6100229A611F
:103210001A46126942F001021A6100BF4FF0E02223
:10322000106900F001021AB100F48032002AF5D0D2
:103230004FF0E022126922F001024FF0E0231A6100
:1032400000229A6170470000FC00002000127A0002
:10325000300100203201002000BF704700BF794AD2
:10326000128802F04002002AF9D0C2B2754B1B1D31
:103270001A80704710B586B00446012144F204005C
:1032800000F018FC4FF40070ADF8140003208DF826
:10329000160018208DF8170005A96B4800F04EF9AC
:1032A0004FF48060ADF8140004208DF8170005A9D4
:1032B000654800F043F925208DF8000003208DF8C3
:1032C00001008DF8020001208DF80300684600F02F
:1032D0005EFE01940020ADF80800ADF80A00ADF8DC
:1032E0000C00ADF810000C20ADF80E0001A95548F7
:1032F00000F087FC012240F22551524800F019FDF0
:103300000121504800F009FD06B010BD10B540F293
:1033100025514C4800F0F2FD10B34A4800F06EFD14
:10332000C4B24A48008800F40040C8B94748008841
:1033300000F4804060B10A2C03D00020434908808B
:1033400020E04248008840F400404049088019E0ED
:103350000D2C06D13D48008840F480403B49088050
:1033600010E03A480088C0F30D0039490C54374842
:103370000088401C3549088008460088C72801DDC0
:103380000020088010BD3EB504460020009001904A
:103390000C230246214602902E4804F02BFE012108
:1033A0002C4800F0BAFC012240F22551294800F0D7
:1033B000C0FC012240F22441264800F0BAFC002360
:1033C0001A460121272004F0C7FD3EBD70472DE9B4
:1033D000F04107460C46154600260DE000BF40218F
:1033E000384600F075FD0028F9D014F8011B384666
:1033F00000F000FD701C86B2AE42EFDBBDE8F0814C
:103400000FB430B5A1B005466C4626A8209068469A
:10341000209A25990AF0A6F9002020900BE000BF21
:103420004021284600F054FD0028F9D014F8011B73
:10343000284600F0DFFC20780028F0D121B030BC15
:103440005DF814FB003801400008014038010020FD
:10345000AA0B002000480040064880470648004765
:10346000FEE7FEE7FEE7FEE7FEE7FEE7FEE7FEE734
:10347000FEE7FEE79F0E00083101000810B5044684
:10348000CC48844208D10121042000F02DFB00210A
:10349000042000F029FB46E0C748844208D10121FE
:1034A000082000F021FB0021082000F01DFB3AE07D
:1034B000C248844208D10121102000F015FB0021F0
:1034C000102000F011FB2EE0BD48844208D10121FC
:1034D000202000F009FB0021202000F005FB22E065
:1034E000B848844208D10121402000F0FDFA0021B3
:1034F000402000F0F9FA16E0B348844208D10121D7
:10350000802000F0F1FA0021802000F0EDFA0AE0BE
:10351000AE48844207D10121801500F0E5FA002170
:10352000A01500F0E1FA10BD10B50121084600F029
:10353000DBFA0021012000F0D7FA10BD2DE9F0419F
:10354000024600250026002000230024002791F8D1
:1035500003C00CF00F0591F803C00CF0100CBCF187
:10356000000F03D091F802C04CEA050591F800C0A5
:10357000BCF1000F31D0146800202BE04FF0010C9B
:103580000CFA00F3B1F800C00CEA03069E4220D109
:1035900083004FF00F0C0CFA03F7BC4305FA03FC51
:1035A0004CEA040491F803C0BCF1280F06D14FF097
:1035B000010C0CFA00FCC2F814C00AE091F803C038
:1035C000BCF1480F05D14FF0010C0CFA00FCC2F819
:1035D00010C0401C0828D1D31460B1F800C0BCF161
:1035E000FF0F34DD546800202EE000F1080C4FF08E
:1035F000010808FA0CF3B1F800C00CEA03069E4279
:1036000021D183004FF00F0C0CFA03F7BC4305FAED
:1036100003FC4CEA040491F803C0BCF1280F05D167
:1036200000F1080C08FA0CF8C2F8148091F803C0F5
:10363000BCF1480F07D100F1080C4FF0010808FA5F
:103640000CF8C2F81080401C0828CED35460BDE8A6
:10365000F0814FF6FF710180022181700421C17059
:1036600070470246002093680B400BB1012000E038
:10367000002070470146886880B2704702460020EB
:10368000D3680B400BB1012000E0002070470146D9
:10369000C86880B2704701617047416170470AB1E4
:1036A000016100E041617047C16070474FF48032B2
:1036B0000A43826181618261826982697047024640
:1036C0000020434B18684FF68073184040EA021000
:1036D00008433F4B186070473E49C8617047F0B5DA
:1036E0000A46002300240021002500F00046B6F120
:1036F000004F02D1364EF16901E0354E7168C0F3DA
:10370000034583B200F44016B6F5401F08D121F0FE
:1037100070612F4E766826F070662D4F7E6012E045
:1037200000F48016B6F5801F06D1032606FA05F4CC
:10373000A14341F0706106E0460D360103FA06F63A
:10374000B14341F0706122B1460D360103FA06F62D
:10375000314300F00046B6F1004F02D11C4EF1613A
:1037600001E01B4E7160F0BD30B500228B071C0FCD
:103770000F2303FA04F2164B08338C1053F824304D
:103780009343134C08348D1044F8253023468C1095
:1037900053F824308C07240F00FA04F423430C4C14
:1037A00008348D1044F8253030BD0A49DC310860FA
:1037B0007047000000080140000C0140001001406B
:1037C0000014014000180140001C0140002001408D
:1037D0000000014000002042DF48006840F0010086
:1037E000DD49086008464068DC490840DA4948601D
:1037F00008460068DA490840D7490860084600686A
:1038000020F4802008600846406820F4FE004860EC
:103810004FF41F0088607047CF49096821F4803158
:10382000CD4A11601146096821F480211160B0F57C
:10383000803F03D0B0F5802F0ED106E0C64909685D
:1038400041F48031C44A116007E0C349096841F47A
:10385000A021C14A116000E000BF00BF704710B551
:1038600001460022002300204A11012A02D1BA4C4D
:10387000236806E0022A02D1B74C236A01E0B64C65
:10388000636A01F01F02012494401C400CB1012026
:1038900000E0002010BD38B5002000900024002575
:1038A00000BF3120FFF7DBFF05460098401C009069
:1038B0000098B0F5A06F01D0002DF2D03120FFF7B5
:1038C000CEFF08B1012400E00024204638BD0146A7
:1038D0000020A14A106820F0F80040EAC100106002
:1038E0007047A04908607047024600209A4B58680C
:1038F00020F47C1042EA01031843974B586070474C
:1039000098490866704701460020934A506820F0A5
:1039100003000843506070478F48406800F00C0077
:103920007047014600208C4A506820F0F0000843A0
:103930005060704701460020874A506820F4E060DC
:1039400008435060704701460020834A506820F4C5
:10395000605040EAC1005060704729B17E4A527AF7
:1039600002437D4B5A7204E07B4A527A82437A4B7F
:103970005A7270477B49D831086070470146002071
:10398000754A506820F44040084350607047002159
:10399000714A20321170704A82F82010012802D03A
:1039A00004280AD104E001216B4A2032117005E09D
:1039B0000521694A2032117000E000BF00BF704746
:1039C0006949086070476449096A0143624A1162A3
:1039D0007047654944390860704730B500210022BE
:1039E000002400235C4D6D6805F00C0121B1042911
:1039F00005D0082923D105E05C4D056022E05B4D30
:103A000005601FE0544D6D6805F47012524D6D68ED
:103A100005F48034022505EB92421CB9544D554300
:103A200005600BE04C4D6D6805F400351DB1504D3F
:103A30005543056002E04D4D5543056002E04B4D96
:103A4000056000BF00BF444D6D6805F0F001090935
:103A5000484D6B5C0568DD4045603F4D6D6805F481
:103A6000E061090A434D6B5C4568DD4085603A4D75
:103A70006D6805F46051C90A3E4D6B5C4568DD40D8
:103A8000C560354D6D6805F44041890B3A4D6B5C5E
:103A9000C568B5FBF3F5056130BD29B12E4A526901
:103AA00002432D4B5A6104E02B4A526982432A4B50
:103AB0005A61704729B1284A92690243264B9A619C
:103AC00004E0254A92698243234B9A61704729B1E9
:103AD000214AD2690243204BDA6104E01E4AD269CE
:103AE00082431D4BDA61704729B11B4AD2680243F9
:103AF000194BDA6004E0184AD2688243164BDA6048
:103B0000704729B1144A12690243134B1A6104E049
:103B1000114A12698243104B1A61704712494039A9
:103B2000086070470F49C86470470B49C8717047F7
:103B30000948406A40F08070074948627047014672
:103B40000020054A92680A400AB1012000E00020E6
:103B50007047014988727047001002400000FFF86A
:103B6000FFFFF6FE000042428004424200127A004B
:103B700000093D003A0100204A01002010B504462A
:103B8000FB48844209D101218803FFF7ADFF0021E2
:103B90004FF48040FFF7A8FF32E0F648844209D195
:103BA00001214804FFF7ADFF00214FF40030FFF77B
:103BB000A8FF25E0F048844209D101218804FFF7DD
:103BC000A0FF00214FF48020FFF79BFF18E0EB4897
:103BD000844209D10121C804FFF793FF00214FF46B
:103BE0000020FFF78EFF0BE0E548844208D1012159
:103BF0000805FFF786FF00214FF48010FFF781FFD3
:103C000010BD2DE9F04786B005460E460024A246B9
:103C100000BFA1460027B08900B100BF2F462C8A03
:103C20004CF6FF700440F08804432C82AC894EF6B9
:103C3000F3100440B0883189084371890843044374
:103C4000AC81AC8A4FF6FF400440B0890443AC829B
:103C500001A8FFF7C2FEC648874202D1DDF810A0D6
:103C600001E0DDF80CA0A88900F4004040B10AEBA7
:103C7000CA0000EB0A1031684900B0FBF1F807E018
:103C80000AEBCA0000EB0A1031688900B0FBF1F8BA
:103C90006420B8FBF0F004012009642101FB1089C5
:103CA000A88900F4004040B1322000EBC900B0FB0D
:103CB000F1F000F00700044308E0322000EB0910A7
:103CC0006421B0FBF1F000F00F0004432C8106B03A
:103CD000BDE8F0874FF41651016000218180C1805A
:103CE00001810C21418100218181704710B502467C
:103CF0000020108A4FF2FF0318400B884C882343A2
:103D00008C882343CC8823431843108210BD0021A4
:103D1000018041808180C180704721B1828942F455
:103D20000052828104E082894DF6FF731A4082813D
:103D30007047F0B50346002400260025002040F619
:103D40006A17B94200D100BF1846C1F3421401F00E
:103D50001F06012707FA06F5012C01D10C3004E0FB
:103D6000022C01D1103000E014301AB107682F4343
:103D7000076002E00768AF430760F0BD1AB1838AAD
:103D80000B43838202E0838A8B4383827047028ADB
:103D90004FF6F0731A400282028A0A430282704789
:103DA00082894FF2FF731A40828182890A4382819D
:103DB000704721B1828942F00202828104E0828947
:103DC0004FF6FD731A4082817047028A4FF6DF7307
:103DD0001A400282028A0A430282704721B1028A93
:103DE00042F48042028204E0028A4BF6FF731A40DA
:103DF00002827047C1F308028280704701468888BA
:103E0000C0F308007047818941F00101818170474A
:103E1000028BD2B20283028B42EA012202837047F4
:103E2000028B02F47F420283028B0A4302837047B3
:103E300021B1828A42F02002828204E0828A4FF617
:103E4000DF731A408282704721B1828A42F01002E9
:103E5000828204E0828A4FF6EF731A4082827047B2
:103E600021B1828A42F00802828204E0828A4FF6FF
:103E7000F7731A408282704721B1828942F400426E
:103E8000828103E08289C2F30E028281704721B1F0
:103E9000828A42F40062828204E0828A4FF2FF73D7
:103EA0001A4082827047828A4FF6FB731A408282E0
:103EB000828A0A438282704721B1828A42F00202DA
:103EC000828204E0828A4FF6FD731A408282704734
:103ED00002460020B1F5007F00D100BF13880B40DF
:103EE0000BB1012000E00020704701F40072B2F530
:103EF000007F00D100BFCA430280704770B5024600
:103F0000002400230025002040F66A16B14200D1AB
:103F100000BFC1F3421501F01F03012606FA03F3A7
:103F2000012D02D19689334006E0022D02D1168A76
:103F3000334001E0968A33400C12012606FA04F45D
:103F40001688344013B10CB1012000E0002070BD90
:103F500010B50022002340F66A14A14200D100BF30
:103F60000A1201249440A3B2DC43048010BD000077
:103F7000003801400044004000480040004C004030
:103F80000050004031490143314A1160704770B51B
:103F9000002100230F22C47804B32D4C246804F4BC
:103FA000E064C4F5E064210AC1F10403CA40447826
:103FB00004FA03F18478144021430901254C067862
:103FC000A155047804F01F050124AC4005786D115B
:103FD000AD0005F1E025C5F8004109E0047804F0E2
:103FE0001F050124AC401C4D0678761145F826408B
:103FF00070BD1A4A0A400243154B1B1F1A607047D6
:1040000039B1134A121D12680243114B1B1D1A606D
:1040100006E00F4A121D126882430D4B1B1D1A60E9
:104020007047042808D14FF0E021096941F00401EC
:104030004FF0E022116107E04FF0E021096921F023
:1040400004014FF0E0221161704700000000FA0502
:104050000CED00E000E400E080E100E080FFFF1FE5
:1040600010B50446BE48844208D101218014FFF7F0
:104070003BFD0021A014FFF737FD16E0B94884424C
:1040800008D101210014FFF73CFD00212014FFF7A7
:1040900038FD0AE0B448844207D10121C013FFF77C
:1040A00030FD0021E013FFF72CFD10BD10B50022FC
:1040B000028802F441520B884C8823438C882343A6
:1040C000CC8823430C8923434C8923438C89234385
:1040D000CC8923431A430280838B4FF2FF74234021
:1040E00083830B8A038210BD2DE9F04F85B005460E
:1040F0000C464FF0000902274FF000084FF0010B6B
:104100000026B246A88B4FF240010840A883022047
:104110002884B5F81C90A068022801D100BF38E0BF
:10412000A08810B94FF0010B01E04FF0020B8D4851
:10413000854200D100E000BF6846FFF74EFCDDF885
:1041400000A0E088B0F5007F0AD14FEA1A2000EB0A
:1041500080004000A168B0FBF1F0401D86B20BE08A
:104160004FEA4B10BAFBF0F000EB80004000A16872
:10417000B0FBF1F0401D86B20A20B6FBF0F606F067
:104180000108A6EB0800C0F34F074FF6FF7000EAE6
:104190000828022F01DBFF2F02DD02274FF0000865
:1041A000E08840EA080038432884A088A1890843B1
:1041B000618808432188084340F4006040EA090907
:1041C000A5F81C9005B0BDE8F08F0021018041806A
:1041D0008180C180018141818181C181072101826A
:1041E00070470021018041808180C180022181606F
:1041F00000218181704721B1028842F04002028093
:1042000004E002884FF6BF731A400280704721B164
:10421000828B42F48062828304E0828B4FF6FF330C
:104220001A408283704730B5002400230C11012509
:10423000A540ABB21AB185881D43858002E0858810
:104240009D43858030BD1AB183880B43838002E093
:1042500083888B43838070478181704701468889BA
:1042600070474FF6FF62914204D0028842F4807298
:10427000028004E002884FF6FF631A400280704714
:1042800021B1828842F00402828004E082884FF6E5
:10429000FB731A408280704702884FF2FF731A4006
:1042A000028002880A4302807047018841F48051ED
:1042B0000180704721B1028842F40052028004E07C
:1042C00002884DF6FF731A400280704702460020B4
:1042D000012901D0108B00E0908A70470146088ABE
:1042E0007047B1F5804F04D1028842F480420280C9
:1042F00004E002884BF6FF731A40028070470246C2
:10430000002013890B400BB1012000E00020704712
:10431000CA4302817047F0B5024600200024002302
:10432000002501F00F070126BE40B4B20B11012693
:104330009E40B3B2968806EA03051689264016B158
:104340000DB1012000E00020F0BD10B5002201F009
:104350000F040123A3409AB2D343038110BD000090
:104360000030014000380040003C004010B50446D9
:10437000FE48844208D10121C014FFF7B5FB00219B
:10438000E014FFF7B1FBC4E0B4F1804F08D1012184
:104390000846FFF7B6FB00210120FFF7B2FBB8E0AB
:1043A000F348844208D101210220FFF7AAFB002133
:1043B0000220FFF7A6FBACE0EE48844208D10121C1
:1043C0000420FFF79EFB00210420FFF79AFBA0E0EA
:1043D000E948844208D101210820FFF792FB00211F
:1043E0000820FFF78EFB94E0E448844208D10121C5
:1043F0001020FFF786FB00211020FFF782FB88E0EA
:10440000DF48844208D101212020FFF77AFB0021F8
:104410002020FFF776FB7CE0DA48844208D10121B6
:104420004014FFF761FB00216014FFF75DFB70E0B3
:10443000D548844209D10121C804FFF755FB00216A
:104440004FF40020FFF750FB63E0D048844209D1CD
:1044500001210805FFF748FB00214FF48010FFF70A
:1044600043FB56E0CA48844209D101214805FFF7C1
:104470003BFB00214FF40010FFF736FB49E0C54835
:10448000844208D101214020FFF73BFB002140205E
:10449000FFF737FB3DE0C048844208D1012180206E
:1044A000FFF72FFB00218020FFF72BFB31E0BB48FB
:1044B000844208D101218015FFF723FB0021A015BC
:1044C000FFF71FFB25E0B648844209D1012108040B
:1044D000FFF70AFB00214FF48030FFF705FB18E0DF
:1044E000B048844209D101214804FFF7FDFA0021B8
:1044F0004FF40030FFF7F8FA0BE0AB48844208D1E4
:1045000001218804FFF7F0FA00214FF48020FFF723
:10451000EBFA10BD00220288944B98420ED0994BC2
:1045200098420BD0B0F1804F08D0914B984205D003
:10453000904B984202D0904B984204D14FF68F7323
:104540001A404B881A438D4B984207D08C4B9842A7
:1045500004D04FF6FF431A40CB881A4302808B8861
:1045600083850B880385814B98420BD0854B9842FD
:1045700008D08B4B984205D08A4B984202D08A4B88
:10458000984201D10B7A038601238382704770B56C
:10459000002400220023058C4FF6FE76354005846A
:1045A000028C8388048B4FF68F752C40B51E2C40EF
:1045B0000D882C43751E2A400D892A434D882A43B5
:1045C0006A4DA8420BD06F4DA84208D0744DA84246
:1045D00005D0744DA84202D0734DA84213D14FF6B6
:1045E000F7752A404D892A434FF6FB752A408D887E
:1045F0002A434FF6FF652B404FF6FF552B408D8920
:104600002B43CD892B4383800483CD888586028408
:1046100070BD70B5002400220023058C4FF6EF76A4
:1046200035400584028C8388048B48F6FF752C4046
:104630004FF6FF452C400D884FF6FF7606EA05251C
:104640002C434FF6DF752A400D8906EA05152A43EB
:104650004D8806EA05152A43444DA84202D0494D2B
:10466000A8421DD14FF67F752A404D894FF6FF763F
:1046700006EA05152A434FF6BF752A408D8806EADB
:1046800005152A434FF6FF352B404FF2FF752B409F
:104690008D8906EA85052B43CD8906EA85052B43DE
:1046A00083800483CD880587028470BD70B50024A3
:1046B00000220023058C4FF6FF6635400584028CEE
:1046C0008388848B4FF68F752C404FF6FC752C40F9
:1046D0000D882C434FF6FF552A400D894FF6FF7683
:1046E00006EA05252A434D8806EA05252A431F4D7B
:1046F000A84202D0234DA8421DD14FF2FF752A4097
:104700004D894FF6FF7606EA05252A434FF6FF3519
:104710002A408D8806EA05252A434EF6FF752B4070
:104720004DF6FF752B408D8906EA05152B43CD8983
:1047300006EA05152B4383808483CD888587028410
:1047400070BD70B5002200230024058C4EF6FF7664
:1047500035400584038C8488828B48F6FF752A4097
:104760004FF6FF452A400D8820E00000002C014054
:104770000004004000080040000C00400010004011
:104780000014004000340140004C01400050014042
:104790000054014000180040001C00400020004070
:1047A0000040014000440140004801404FF6FF76C0
:1047B00006EA05252A434DF6FF752B400D8906EACA
:1047C00005352B434D8806EA05352B43FA4DA842A3
:1047D00002D0FA4DA84208D14BF6FF752C408D89C6
:1047E0004FF6FF7606EA85152C4384808283CD88B8
:1047F000A0F84050038470BD828B4FF2FF331A4003
:104800008283828B4FF6FF7303EA01231A4382836C
:104810007047F0B50C461546002200210026078C93
:104820004EF6FF7C07EA0C070784828B018C4FF65B
:10483000FF7707EA043640F6FF473A404FF6FF7726
:1048400007EA05273A434FF6FF7707EA03373A436B
:10485000D94FB8420ED0D94FB8420BD0B0F1804FEB
:1048600008D0D74FB84205D0D64FB84202D0D64F65
:10487000B84206D14DF6FF77394046F480573943A8
:1048800005E047F6FF57394044F4805739438283A7
:104890000184F0BD828B4FF6F3731A408283828BC2
:1048A0000A4382837047F0B50C461546002200216A
:1048B0000026078C4FF6FF6C07EA0C070784828BF3
:1048C000018C4FF6FF7707EA04264FF60C773A4043
:1048D0004FF6FF7707EA03172F433A43B64FB84224
:1048E0000ED0B64FB8420BD0B0F1804F08D0B44FC5
:1048F000B84205D0B34FB84202D0B34FB84206D148
:104900004FF6FF57394046F48077394305E04FF2C0
:10491000FF57394044F48077394382830184F0BDE6
:10492000028B4FF2FF331A400283028B4FF6FF7364
:1049300003EA01231A4302837047F0B50C4615467B
:10494000002200210026078C4FF6EF7C07EA0C07B7
:104950000784028B018C4FF6FF7707EA041640F6B6
:10496000FF473A404FF6FF7707EA03373A434FF6DF
:10497000FF7707EA05273A438F4FB8420ED08F4F93
:10498000B8420BD0B0F1804F08D08D4FB84205D05F
:104990008C4FB84202D08C4FB84206D14FF6DF7729
:1049A000394046F01007394305E04FF65F7739404C
:1049B00044F01007394302830184F0BD028B4FF6A7
:1049C000F3731A400283028B0A4302837047F0B5E7
:1049D0000C46154600220021068C4FF6FE773E401D
:1049E0000684028B018C4FF60C7632407E1C06EA60
:1049F00003162E433243704EB0420ED06F4EB0427B
:104A00000BD0B0F1804F08D06D4EB04205D06D4E46
:104A1000B04202D06C4EB04206D14FF6FD76314026
:104A200044F00106314305E04FF6F576314044F09D
:104A30000106314302830184F0BD70B505460C4682
:104A40005D4885420ED05D4885420BD0B5F1804F60
:104A500008D05B48854205D05A48854202D05A4862
:104A6000854200D100E000BF208850B92389A28888
:104A700061882846FFF7ABFFE1882846FFF79EFFD5
:104A800025E0208804280AD12389A2886188284645
:104A9000FFF753FFE1882846FFF742FF17E0208821
:104AA00008280AD12389A28861882846FFF7FBFEDF
:104AB000E1882846FFF7EEFE09E02389A288618895
:104AC0002846FFF7A6FEE1882846FFF795FE70BD51
:104AD0002DE9F04105460C4600260127608808B9FB
:104AE000022600E00026A088012801D1022700E06C
:104AF00001272088A0B92389A28861882846FFF76A
:104B000066FFE1882846FFF759FF23893A46314678
:104B10002846FFF712FFE1882846FFF701FF13E060
:104B20002389A28861882846FFF707FFE188284685
:104B3000FFF7F6FE23893A4631462846FFF747FF3E
:104B4000E1882846FFF73AFFBDE8F0810A884B88E4
:104B50001A438B881A43CB881A430B891A434B8913
:104B60001A438B891A43A0F8442070474FF6FF710F
:104B7000818000210180C180418001727047002145
:104B8000018041808180C180018141818181C18119
:104B90007047002101804180012181800021C18076
:104BA000018170470021018041808180C1800181A5
:104BB0004181818170470000002C01400034014098
:104BC0000004004000080040000C004021B10288B1
:104BD00042F00102028004E002884FF6FE731A40A0
:104BE0000280704731B1B0F8442042F40042A0F88E
:104BF000442005E0B0F84420C2F30E02A0F844209F
:104C000070471AB183890B43838102E083898B4308
:104C1000838170478182704741EA0203A0F84830DF
:104C200070471AB183890B43838102E083898B43E8
:104C30008381704701894FF6F872114001817047F6
:104C40000A46002101894FF68F73194011430181F3
:104C5000704730B504460D4629462046FFF7F0FF61
:104C6000208940F00700208130BD2DE9F041044645
:104C70000D4616461F46602D06D13B4601223146A1
:104C80002046FFF75AFE05E03B460122314620460A
:104C9000FFF79DFE29462046FFF7D2FF208940F00E
:104CA00007002081BDE8F08130B50C460021018964
:104CB000C9B24FF6FF7505EA03251543254329437D
:104CC000018130BD2DE9F04105460E461746984654
:104CD000002443463A4631462846FFF7E5FF2C8933
:104CE0004FF6F870044044F007044FF68F7004400C
:104CF00044F070042C81BDE8F081F0B504460D4607
:104D000016461F463B46324629462046FFF7CCFF53
:104D1000208940F480402081F0BD01858282704767
:104D20000A46002101884FF68F7319401143018014
:104D30007047F0B50C4615461E46002100220023A0
:104D40000189028B038C4FF6F877394021434FF6E7
:104D5000FC473A4040F201173A434FF6DD773B40BB
:104D60004FF6FF7707EA06172F433B430181028383
:104D70000384F0BD0A460021018B4FF68F73194062
:104D80001143018370470A460021018B48F6FF73E7
:104D900019404FF6FF7303EA02231943018370475A
:104DA0000A460021818B4FF68F731940114381838E
:104DB00070470A460021818B48F6FF7319404FF671
:104DC000FF7303EA022319438183704721B10288EC
:104DD00042F08002028004E002884FF67F731A409E
:104DE0000280704721B1828842F00402828004E090
:104DF00082884FF6FB731A408280704721B1828807
:104E000042F00802828004E082884FF6F7731A406D
:104E10008280704721B1828842F00102828004E0E2
:104E200082884FF6FE731A40828070470A4600213E
:104E3000018B4FF6F77319401143018370470A46FF
:104E40000021018B4FF2FF7319404FF6FF7303EA05
:104E500002231943018370470A460021818B4FF6D4
:104E6000F77319401143818370470A460021818BF3
:104E70004FF2FF7319404FF6FF7303EA0223194301
:104E8000818370470A460021018B4FF6FB7319405E
:104E90001143018370470A460021018B4FF6FF330F
:104EA00019404FF6FF7303EA022319430183704749
:104EB0000A460021818B4FF6FB7319401143818311
:104EC00070470A460021818B4FF6FF3319404FF699
:104ED000FF7303EA02231943818370470A460021C6
:104EE000018B4FF67F7319401143018370470A46C7
:104EF0000021018BC1F30E014FF6FF7303EA022379
:104F00001943018370470A460021818B4FF67F7356
:104F100019401143818370470A460021818BC1F3F8
:104F20000E014FF6FF7303EA022319438183704792
:104F30000A460021018C4FF6FD731940114301848C
:104F400070470A460021018C4FF6F7731940114350
:104F5000018470470A460021018C4FF6DF73194027
:104F60004FF6FF7303EA02131943018470470A46A0
:104F70000021018C4FF67F7319404FF6FF7303EA4F
:104F800002131943018470470A460021018C4FF631
:104F9000FF5319404FF6FF7303EA022319430184BC
:104FA00070470A460021018C4FF2FF7319404FF6FB
:104FB000FF7303EA02231943018470470A46002164
:104FC000018C4DF6FF7319404FF6FF7303EA02336D
:104FD00019430184704730B5002301248C40A3B2EB
:104FE000048C9C430484048C02FA01F5ADB22C437A
:104FF000048430BD30B5002304248C40A3B2048C5B
:105000009C430484048C02FA01F5ADB22C43048461
:1050100030BD70B503460020002418461830012525
:105020008D40ACB21D8CA5431D8409B1082909D15E
:1050300000EB6100056825F0700505600568154303
:1050400005600EE00D1FC5F34E052844056825F4E4
:10505000E045056005684FF6FF7606EA022635430F
:10506000056070BD21B1028842F00202028004E0B6
:1050700002884FF6FD731A400280704721B1028802
:1050800042F00402028004E002884FF6FB731A40EB
:105090000280704721B1828842F08002828004E061
:1050A00082884FF67F731A408280704702884FF6DD
:1050B000F7731A40028002880A4302807047828890
:1050C0004FF68F731A40828082880A43828070472D
:1050D00002894FF6F8731A40028102890A4302815D
:1050E000704702894FF67F731A40028102890A4392
:1050F000028170478184704781857047818670473F
:105100000187704781877047A0F840107047028878
:105110004FF6FF431A40028002880A43028070471C
:105120000146888E70470146088F70470146888F78
:1051300070470146B1F8400070470146888C7047BF
:105140000146088D704702460020138A0B400BB1C0
:10515000012000E000207047CA430282704730B54A
:105160000246002000230024158A05EA01039589E0
:1051700005EA010413B10CB1012000E0002030BDAC
:10518000CA43028270470000002044490860091D9C
:105190000860091D0860091D086041483F49143135
:1051A0000860704700213D498279002A3AD00A46BA
:1051B000126803689A430B461A600A1D1268036856
:1051C0009A430B1D1A60027911440A6803681A4356
:1051D0000A60324A0832126803689A432F4B083338
:1051E0001A601A1D126803689A432C4B0C331A601C
:1051F0004279102A0ED11A1F126803681A43274BEE
:1052000008331A601A1D126803681A43234B0C33C3
:105210001A600DE02149427911440A6803681A4373
:105220000A6005E0027911440A6803689A430A603B
:1052300070470021016001710C21417100218171D1
:1052400070471649103109680143144A1032116041
:10525000704701460020114A143212680A400AB110
:10526000012000E0002070470C49143108607047AD
:10527000014600200022094B1B6803EA0102074B8C
:1052800014331B680B4013B10AB1012000E0002069
:105290007047024914310860704700000004014063
:1052A000FFFF0F0001684FF6FE7211400160002100
:1052B000016041608160C1608D49884208D18C499C
:1052C0000839496841F00F01894A083A51608AE07B
:1052D00087491431884208D185490839496841F025
:1052E000F001834A083A51607DE0814928318842C3
:1052F00008D17F490839496841F470617C4A083A0D
:10530000516070E07A493C31884208D178490839C7
:10531000496841F47041764A083A516063E0744943
:105320005031884208D172490839496841F47021E6
:105330006F4A083A516056E06D496431884208D19D
:105340006B490839496841F47001694A083A51606B
:1053500049E067497831884208D165490839496888
:1053600041F07061624A083A51603CE0614988420C
:1053700006D1011F096841F00F01021F116032E0E0
:105380005C491431884208D15A49091F096841F023
:10539000F001584A121F116025E056492831884211
:1053A00008D15449091F096841F47061514A121F1C
:1053B000116018E04F493C31884208D14D49091F1E
:1053C000096841F470414B4A121F11600BE04949D2
:1053D0005031884207D14749091F096841F47021BB
:1053E000444A121F1160704710B50022026847F648
:1053F000F0739A430C6A8B6823430C6923434C690E
:1054000023438C692343CC6923434C6A23438C6A2E
:1054100023431A430260CB6843600B6883604B6888
:10542000C36010BD0021016041608160C160016105
:1054300041618161C161016241628162704721B154
:10544000026842F00102026004E002684FF6FE7357
:105450001A40026070471AB103680B43036002E010
:1054600003688B430360704741607047014648689A
:1054700080B2704701460020002201F080531BB12A
:105480001C4B083B1A6802E0194B083B1A6802EAF9
:1054900001030BB1012000E00020704700F08051B3
:1054A00019B11449091F086002E011490839486020
:1054B000704701460020002201F080531BB10D4BC4
:1054C000083B1A6802E00A4B083B1A6802EA01032B
:1054D0000BB1012000E00020704700F0805119B1AD
:1054E0000449091F086002E0014908394860704713
:1054F000080002400804024070B503460C4603E071
:1055000014F8015B03F8015B151EA2F10102F7D14B
:1055100070BD30B5034601E003F8011B141EA2F173
:105520000102F9D130BD00B55A494FF40C62C86888
:105530000021FFF7EEFF57494FF40C428868002125
:10554000FFF7E7FF01205349087400BD0022002146
:1055500006E05048C06830F8110000B1521C491CE8
:10556000B1F58C6FF5D3642050434FF48C63B0FBDE
:10557000F3F0C0B270472DE9F04106460024A04682
:105580004448007C10B94349086880471EB94FF071
:10559000FF30BDE8F081C6F34F1506F01F0008B1DB
:1055A000681C85B240F25F441AE03A48C06830F89F
:1055B000140020B908F101001FFA80F801E04FF053
:1055C0000008A8450BD1002705E03248C068E11962
:1055D00020F811507F1CAF42F7D36001D9E7641E59
:1055E000002CE2DA4FF0FF30D3E770B505462948CA
:1055F000007C20B9274908688047012070BDB5F5B7
:105600000C4F11D269092348C06830F811200024DA
:1056100006E000201F4BDB680E1923F81600641CFF
:105620009442F6DB0020E9E70220E7E770B5044684
:1056300004B970BD17488068251A2846FFF7D5FFC2
:1056400000BFF6E770B505462846FFF794FF04460D
:10565000601C08B9002070BD0E4880682044FAE73D
:1056600070B506460C462046FFF785FF0546681CC8
:1056700008B9002070BD074989684819224631469B
:10568000FFF73AFF3046FFF7D1FF02488068284411
:10569000F0E70000500100201FB58CB000200B90F7
:1056A0000A900E9800EB80010C9800EBC100007F7F
:1056B00007280BDB0E9800EB80010C9800EBC10073
:1056C000007F0E2802DC03200B9029E00E9800EBEF
:1056D00080010C9800EBC100007F0F2802D104204C
:1056E0000B901DE00E9800EB80010C9800EBC100C0
:1056F000007F012811DB0E9800EB80010C9800EB75
:10570000C100007F062808DC0E9800EB80010C9891
:1057100000EBC100007F0B9002E0012010B010BD33
:105720000E9800EB80010C9800EBC100407F002830
:105730007CD00E9800EB80010C9800EBC100007F3C
:10574000102874D2DFE800F073083D73FDFCFB7491
:10575000AAE0FAF9F8F7F6F50E9800EB80010C983C
:1057600000EBC1008069089007F022FB09900E98B9
:1057700000EB80010C9800EBC10080690E9B03EBED
:105780008304DDE90B2303EBC40310330999CDE94E
:105790000132CDE903100E9800EB80010C9800EB6C
:1057A000C100083000900E9800EB80010C9800EBCF
:1057B000C1000346FCA208900F990D9807F0A6FFC0
:1057C0001BE30E9800EB80010C9800EBC100806990
:1057D000089007F0EDFA09900E9800EB80010C9804
:1057E00000EBC10080690E9B03EB8304DDE90B2312
:1057F00003EBC40310330999CDE90132CDE903105D
:105800000E9800EB80010C9800EBC100083000906E
:105810000E9800EB80010C9800EBC1000346E2A259
:1058200008900F990D9807F071FFE6E2E6E2E1E2D9
:105830000E9800EB80010C9800EBC1008069089085
:1058400007F0B6FA09900E9800EB80010C9800EB77
:10585000C100806901680E9B03EB8304DDE90B2323
:1058600003EBC40310330998CDE90132CDE90301FC
:105870000E9800EB80010C9800EBC10008300090FE
:105880000E9800EB80010C9800EBC1000346D1A2FA
:1058900008900F990D9807F039FFAEE20E9800EBD3
:1058A00080010C9800EBC1008069089007F080FA35
:1058B00009900E9800EB80010C9800EBC100806904
:1058C00002680E9B03EB8304DDE90B0303EBC403C7
:1058D00010330999CDE90130CDE903120E9800EBA0
:1058E00080010C9800EBC100083000900E9800EB8E
:1058F00080010C9800EBC1000346B6A208900F99F6
:105900000D9807F003FF78E20E9800EB80010C98E9
:1059100000EBC1008069089007F04AFA09900E98E0
:1059200000EB80010C9800EBC100806900680E9BC1
:1059300008E0BBE101E1CAE092E05BE024E023E2A1
:10594000EBE175E103EB8304DDE90B2303EBC40317
:1059500010330999CDE90132CDE903100E9800EB1F
:1059600080010C9800EBC100083000900E9800EB0D
:1059700080010C9800EBC1000346A2A208900F9989
:105980000D9807F0C3FE38E20E9800EB80010C98EA
:1059900000EBC1008069089007F00AFA09900E98A0
:1059A00000EB80010C9800EBC100806900680E9B41
:1059B00003EB8304DDE90B1303EBC4031033099AF3
:1059C000CDE90131CDE903200E9800EB80010C9860
:1059D00000EBC100083000900E9800EB80010C989D
:1059E00000EBC100034687A208900F990D9807F0BD
:1059F0008DFE02E20E9800EB80010C9800EBC100D6
:105A00008069089007F0D4F909900E9800EB8001A6
:105A10000C9800EBC100806902880E9B03EB8304A5
:105A2000DDE90B0303EBC40310330999CDE9013021
:105A3000CDE903120E9800EB80010C9800EBC10039
:105A4000083000900E9800EB80010C9800EBC1002C
:105A500003466CA208900F990D9807F057FECCE111
:105A60000E9800EB80010C9800EBC1008069089053
:105A700007F09EF909900E9800EB80010C9800EB5E
:105A8000C1008069B0F900000E9B03EB8304DDE9DF
:105A90000B1303EBC4031033099ACDE90131CDE9AF
:105AA00003200E9800EB80010C9800EBC100083039
:105AB00000900E9800EB80010C9800EBC1000346AB
:105AC00050A208900F990D9807F020FE95E10E98CE
:105AD00000EB80010C9800EBC1008069089007F092
